{
  "_format": "hh-sol-artifact-1",
  "contractName": "GovernanceToken",
  "sourceName": "contracts/GovernanceToken.sol",
  "abi": [
    {
      "inputs": [],
      "stateMutability": "nonpayable",
      "type": "constructor"
    },
    {
      "anonymous": false,
      "inputs": [
        {
          "indexed": true,
          "internalType": "address",
          "name": "owner",
          "type": "address"
        },
        {
          "indexed": true,
          "internalType": "address",
          "name": "spender",
          "type": "address"
        },
        {
          "indexed": false,
          "internalType": "uint256",
          "name": "value",
          "type": "uint256"
        }
      ],
      "name": "Approval",
      "type": "event"
    },
    {
      "anonymous": false,
      "inputs": [
        {
          "indexed": true,
          "internalType": "address",
          "name": "delegator",
          "type": "address"
        },
        {
          "indexed": true,
          "internalType": "address",
          "name": "fromDelegate",
          "type": "address"
        },
        {
          "indexed": true,
          "internalType": "address",
          "name": "toDelegate",
          "type": "address"
        }
      ],
      "name": "DelegateChanged",
      "type": "event"
    },
    {
      "anonymous": false,
      "inputs": [
        {
          "indexed": true,
          "internalType": "address",
          "name": "delegate",
          "type": "address"
        },
        {
          "indexed": false,
          "internalType": "uint256",
          "name": "previousBalance",
          "type": "uint256"
        },
        {
          "indexed": false,
          "internalType": "uint256",
          "name": "newBalance",
          "type": "uint256"
        }
      ],
      "name": "DelegateVotesChanged",
      "type": "event"
    },
    {
      "anonymous": false,
      "inputs": [
        {
          "indexed": true,
          "internalType": "address",
          "name": "from",
          "type": "address"
        },
        {
          "indexed": true,
          "internalType": "address",
          "name": "to",
          "type": "address"
        },
        {
          "indexed": false,
          "internalType": "uint256",
          "name": "value",
          "type": "uint256"
        }
      ],
      "name": "Transfer",
      "type": "event"
    },
    {
      "inputs": [],
      "name": "DOMAIN_SEPARATOR",
      "outputs": [
        {
          "internalType": "bytes32",
          "name": "",
          "type": "bytes32"
        }
      ],
      "stateMutability": "view",
      "type": "function"
    },
    {
      "inputs": [
        {
          "internalType": "address",
          "name": "owner",
          "type": "address"
        },
        {
          "internalType": "address",
          "name": "spender",
          "type": "address"
        }
      ],
      "name": "allowance",
      "outputs": [
        {
          "internalType": "uint256",
          "name": "",
          "type": "uint256"
        }
      ],
      "stateMutability": "view",
      "type": "function"
    },
    {
      "inputs": [
        {
          "internalType": "address",
          "name": "spender",
          "type": "address"
        },
        {
          "internalType": "uint256",
          "name": "amount",
          "type": "uint256"
        }
      ],
      "name": "approve",
      "outputs": [
        {
          "internalType": "bool",
          "name": "",
          "type": "bool"
        }
      ],
      "stateMutability": "nonpayable",
      "type": "function"
    },
    {
      "inputs": [
        {
          "internalType": "address",
          "name": "account",
          "type": "address"
        }
      ],
      "name": "balanceOf",
      "outputs": [
        {
          "internalType": "uint256",
          "name": "",
          "type": "uint256"
        }
      ],
      "stateMutability": "view",
      "type": "function"
    },
    {
      "inputs": [
        {
          "internalType": "address",
          "name": "account",
          "type": "address"
        },
        {
          "internalType": "uint32",
          "name": "pos",
          "type": "uint32"
        }
      ],
      "name": "checkpoints",
      "outputs": [
        {
          "components": [
            {
              "internalType": "uint32",
              "name": "fromBlock",
              "type": "uint32"
            },
            {
              "internalType": "uint224",
              "name": "votes",
              "type": "uint224"
            }
          ],
          "internalType": "struct ERC20Votes.Checkpoint",
          "name": "",
          "type": "tuple"
        }
      ],
      "stateMutability": "view",
      "type": "function"
    },
    {
      "inputs": [],
      "name": "decimals",
      "outputs": [
        {
          "internalType": "uint8",
          "name": "",
          "type": "uint8"
        }
      ],
      "stateMutability": "view",
      "type": "function"
    },
    {
      "inputs": [
        {
          "internalType": "address",
          "name": "spender",
          "type": "address"
        },
        {
          "internalType": "uint256",
          "name": "subtractedValue",
          "type": "uint256"
        }
      ],
      "name": "decreaseAllowance",
      "outputs": [
        {
          "internalType": "bool",
          "name": "",
          "type": "bool"
        }
      ],
      "stateMutability": "nonpayable",
      "type": "function"
    },
    {
      "inputs": [
        {
          "internalType": "address",
          "name": "delegatee",
          "type": "address"
        }
      ],
      "name": "delegate",
      "outputs": [],
      "stateMutability": "nonpayable",
      "type": "function"
    },
    {
      "inputs": [
        {
          "internalType": "address",
          "name": "delegatee",
          "type": "address"
        },
        {
          "internalType": "uint256",
          "name": "nonce",
          "type": "uint256"
        },
        {
          "internalType": "uint256",
          "name": "expiry",
          "type": "uint256"
        },
        {
          "internalType": "uint8",
          "name": "v",
          "type": "uint8"
        },
        {
          "internalType": "bytes32",
          "name": "r",
          "type": "bytes32"
        },
        {
          "internalType": "bytes32",
          "name": "s",
          "type": "bytes32"
        }
      ],
      "name": "delegateBySig",
      "outputs": [],
      "stateMutability": "nonpayable",
      "type": "function"
    },
    {
      "inputs": [
        {
          "internalType": "address",
          "name": "account",
          "type": "address"
        }
      ],
      "name": "delegates",
      "outputs": [
        {
          "internalType": "address",
          "name": "",
          "type": "address"
        }
      ],
      "stateMutability": "view",
      "type": "function"
    },
    {
      "inputs": [
        {
          "internalType": "uint256",
          "name": "blockNumber",
          "type": "uint256"
        }
      ],
      "name": "getPastTotalSupply",
      "outputs": [
        {
          "internalType": "uint256",
          "name": "",
          "type": "uint256"
        }
      ],
      "stateMutability": "view",
      "type": "function"
    },
    {
      "inputs": [
        {
          "internalType": "address",
          "name": "account",
          "type": "address"
        },
        {
          "internalType": "uint256",
          "name": "blockNumber",
          "type": "uint256"
        }
      ],
      "name": "getPastVotes",
      "outputs": [
        {
          "internalType": "uint256",
          "name": "",
          "type": "uint256"
        }
      ],
      "stateMutability": "view",
      "type": "function"
    },
    {
      "inputs": [
        {
          "internalType": "address",
          "name": "account",
          "type": "address"
        }
      ],
      "name": "getVotes",
      "outputs": [
        {
          "internalType": "uint256",
          "name": "",
          "type": "uint256"
        }
      ],
      "stateMutability": "view",
      "type": "function"
    },
    {
      "inputs": [
        {
          "internalType": "address",
          "name": "spender",
          "type": "address"
        },
        {
          "internalType": "uint256",
          "name": "addedValue",
          "type": "uint256"
        }
      ],
      "name": "increaseAllowance",
      "outputs": [
        {
          "internalType": "bool",
          "name": "",
          "type": "bool"
        }
      ],
      "stateMutability": "nonpayable",
      "type": "function"
    },
    {
      "inputs": [],
      "name": "name",
      "outputs": [
        {
          "internalType": "string",
          "name": "",
          "type": "string"
        }
      ],
      "stateMutability": "view",
      "type": "function"
    },
    {
      "inputs": [
        {
          "internalType": "address",
          "name": "owner",
          "type": "address"
        }
      ],
      "name": "nonces",
      "outputs": [
        {
          "internalType": "uint256",
          "name": "",
          "type": "uint256"
        }
      ],
      "stateMutability": "view",
      "type": "function"
    },
    {
      "inputs": [
        {
          "internalType": "address",
          "name": "account",
          "type": "address"
        }
      ],
      "name": "numCheckpoints",
      "outputs": [
        {
          "internalType": "uint32",
          "name": "",
          "type": "uint32"
        }
      ],
      "stateMutability": "view",
      "type": "function"
    },
    {
      "inputs": [
        {
          "internalType": "address",
          "name": "owner",
          "type": "address"
        },
        {
          "internalType": "address",
          "name": "spender",
          "type": "address"
        },
        {
          "internalType": "uint256",
          "name": "value",
          "type": "uint256"
        },
        {
          "internalType": "uint256",
          "name": "deadline",
          "type": "uint256"
        },
        {
          "internalType": "uint8",
          "name": "v",
          "type": "uint8"
        },
        {
          "internalType": "bytes32",
          "name": "r",
          "type": "bytes32"
        },
        {
          "internalType": "bytes32",
          "name": "s",
          "type": "bytes32"
        }
      ],
      "name": "permit",
      "outputs": [],
      "stateMutability": "nonpayable",
      "type": "function"
    },
    {
      "inputs": [],
      "name": "s_maxSupply",
      "outputs": [
        {
          "internalType": "uint256",
          "name": "",
          "type": "uint256"
        }
      ],
      "stateMutability": "view",
      "type": "function"
    },
    {
      "inputs": [],
      "name": "symbol",
      "outputs": [
        {
          "internalType": "string",
          "name": "",
          "type": "string"
        }
      ],
      "stateMutability": "view",
      "type": "function"
    },
    {
      "inputs": [],
      "name": "totalSupply",
      "outputs": [
        {
          "internalType": "uint256",
          "name": "",
          "type": "uint256"
        }
      ],
      "stateMutability": "view",
      "type": "function"
    },
    {
      "inputs": [
        {
          "internalType": "address",
          "name": "to",
          "type": "address"
        },
        {
          "internalType": "uint256",
          "name": "amount",
          "type": "uint256"
        }
      ],
      "name": "transfer",
      "outputs": [
        {
          "internalType": "bool",
          "name": "",
          "type": "bool"
        }
      ],
      "stateMutability": "nonpayable",
      "type": "function"
    },
    {
      "inputs": [
        {
          "internalType": "address",
          "name": "from",
          "type": "address"
        },
        {
          "internalType": "address",
          "name": "to",
          "type": "address"
        },
        {
          "internalType": "uint256",
          "name": "amount",
          "type": "uint256"
        }
      ],
      "name": "transferFrom",
      "outputs": [
        {
          "internalType": "bool",
          "name": "",
          "type": "bool"
        }
      ],
      "stateMutability": "nonpayable",
      "type": "function"
    }
  ],
  "bytecode": "0x6101406040526509184e72a000600a553480156200001c57600080fd5b506040518060400160405280600f81526020017f476f7665726e616e6365546f6b656e0000000000000000000000000000000000815250806040518060400160405280600181526020017f31000000000000000000000000000000000000000000000000000000000000008152506040518060400160405280600f81526020017f476f7665726e616e6365546f6b656e00000000000000000000000000000000008152506040518060400160405280600281526020017f4754000000000000000000000000000000000000000000000000000000000000815250816003908162000107919062000dc6565b50806004908162000119919062000dc6565b50505060008280519060200120905060008280519060200120905060007f8b73c3c69bb8fe3d512ecc4cf759cc79239f7b179b0ffacaa9a75d522b39400f90508260e081815250508161010081815250504660a0818152505062000185818484620001e960201b60201c565b608081815250503073ffffffffffffffffffffffffffffffffffffffff1660c08173ffffffffffffffffffffffffffffffffffffffff1681525050806101208181525050505050505050620001e333600a546200022560201b60201c565b620012e4565b600083838346306040516020016200020695949392919062000f1e565b6040516020818303038152906040528051906020012090509392505050565b6200023c82826200024060201b62000eaa1760201c565b5050565b620002578282620002fe60201b62000f371760201c565b620002676200047660201b60201c565b7bffffffffffffffffffffffffffffffffffffffffffffffffffffffff16620002956200049a60201b60201c565b1115620002d9576040517f08c379a0000000000000000000000000000000000000000000000000000000008152600401620002d09062001002565b60405180910390fd5b620002f86009620004a460201b620010961783620004bc60201b60201c565b50505050565b600073ffffffffffffffffffffffffffffffffffffffff168273ffffffffffffffffffffffffffffffffffffffff160362000370576040517f08c379a0000000000000000000000000000000000000000000000000000000008152600401620003679062001074565b60405180910390fd5b62000384600083836200076d60201b60201c565b8060026000828254620003989190620010c5565b92505081905550806000808473ffffffffffffffffffffffffffffffffffffffff1673ffffffffffffffffffffffffffffffffffffffff1681526020019081526020016000206000828254620003ef9190620010c5565b925050819055508173ffffffffffffffffffffffffffffffffffffffff16600073ffffffffffffffffffffffffffffffffffffffff167fddf252ad1be2c89b69c2b068fc378daa952ba7f163c4a11628f55a4df523b3ef8360405162000456919062001100565b60405180910390a362000472600083836200077260201b60201c565b5050565b60007bffffffffffffffffffffffffffffffffffffffffffffffffffffffff905090565b6000600254905090565b60008183620004b49190620010c5565b905092915050565b60008060008580549050905060008114620005315785600182620004e191906200111d565b81548110620004f557620004f462001158565b5b9060005260206000200160000160049054906101000a90047bffffffffffffffffffffffffffffffffffffffffffffffffffffffff1662000534565b60005b7bffffffffffffffffffffffffffffffffffffffffffffffffffffffff1692506200056083858760201c565b9150600081118015620005b9575043866001836200057f91906200111d565b8154811062000593576200059262001158565b5b9060005260206000200160000160009054906101000a900463ffffffff1663ffffffff16145b156200065a57620005d5826200078f60201b620010ac1760201c565b86600183620005e591906200111d565b81548110620005f957620005f862001158565b5b9060005260206000200160000160046101000a8154817bffffffffffffffffffffffffffffffffffffffffffffffffffffffff02191690837bffffffffffffffffffffffffffffffffffffffffffffffffffffffff16021790555062000764565b8560405180604001604052806200067c43620007fd60201b620011171760201c565b63ffffffff1681526020016200069d856200078f60201b620010ac1760201c565b7bffffffffffffffffffffffffffffffffffffffffffffffffffffffff168152509080600181540180825580915050600190039060005260206000200160009091909190915060008201518160000160006101000a81548163ffffffff021916908363ffffffff16021790555060208201518160000160046101000a8154817bffffffffffffffffffffffffffffffffffffffffffffffffffffffff02191690837bffffffffffffffffffffffffffffffffffffffffffffffffffffffff16021790555050505b50935093915050565b505050565b6200078a8383836200085360201b6200116a1760201c565b505050565b60007bffffffffffffffffffffffffffffffffffffffffffffffffffffffff8016821115620007f5576040517f08c379a0000000000000000000000000000000000000000000000000000000008152600401620007ec90620011fd565b60405180910390fd5b819050919050565b600063ffffffff80168211156200084b576040517f08c379a0000000000000000000000000000000000000000000000000000000008152600401620008429062001295565b60405180910390fd5b819050919050565b6200086b838383620008a360201b620011951760201c565b6200089e6200088084620008a860201b60201c565b6200089184620008a860201b60201c565b836200091160201b60201c565b505050565b505050565b6000600760008373ffffffffffffffffffffffffffffffffffffffff1673ffffffffffffffffffffffffffffffffffffffff16815260200190815260200160002060009054906101000a900473ffffffffffffffffffffffffffffffffffffffff169050919050565b8173ffffffffffffffffffffffffffffffffffffffff168373ffffffffffffffffffffffffffffffffffffffff16141580156200094e5750600081115b1562000b2f57600073ffffffffffffffffffffffffffffffffffffffff168373ffffffffffffffffffffffffffffffffffffffff161462000a4157600080620009e8600860008773ffffffffffffffffffffffffffffffffffffffff1673ffffffffffffffffffffffffffffffffffffffff16815260200190815260200160002062000b3460201b6200119a1785620004bc60201b60201c565b915091508473ffffffffffffffffffffffffffffffffffffffff167fdec2bacdd2f05b59de34da9b523dff8be42e5e38e818c82fdb0bae774387a724838360405162000a36929190620012b7565b60405180910390a250505b600073ffffffffffffffffffffffffffffffffffffffff168273ffffffffffffffffffffffffffffffffffffffff161462000b2e5760008062000ad5600860008673ffffffffffffffffffffffffffffffffffffffff1673ffffffffffffffffffffffffffffffffffffffff168152602001908152602001600020620004a460201b620010961785620004bc60201b60201c565b915091508373ffffffffffffffffffffffffffffffffffffffff167fdec2bacdd2f05b59de34da9b523dff8be42e5e38e818c82fdb0bae774387a724838360405162000b23929190620012b7565b60405180910390a250505b5b505050565b6000818362000b4491906200111d565b905092915050565b600081519050919050565b7f4e487b7100000000000000000000000000000000000000000000000000000000600052604160045260246000fd5b7f4e487b7100000000000000000000000000000000000000000000000000000000600052602260045260246000fd5b6000600282049050600182168062000bce57607f821691505b60208210810362000be45762000be362000b86565b5b50919050565b60008190508160005260206000209050919050565b60006020601f8301049050919050565b600082821b905092915050565b60006008830262000c4e7fffffffffffffffffffffffffffffffffffffffffffffffffffffffffffffffff8262000c0f565b62000c5a868362000c0f565b95508019841693508086168417925050509392505050565b6000819050919050565b6000819050919050565b600062000ca762000ca162000c9b8462000c72565b62000c7c565b62000c72565b9050919050565b6000819050919050565b62000cc38362000c86565b62000cdb62000cd28262000cae565b84845462000c1c565b825550505050565b600090565b62000cf262000ce3565b62000cff81848462000cb8565b505050565b5b8181101562000d275762000d1b60008262000ce8565b60018101905062000d05565b5050565b601f82111562000d765762000d408162000bea565b62000d4b8462000bff565b8101602085101562000d5b578190505b62000d7362000d6a8562000bff565b83018262000d04565b50505b505050565b600082821c905092915050565b600062000d9b6000198460080262000d7b565b1980831691505092915050565b600062000db6838362000d88565b9150826002028217905092915050565b62000dd18262000b4c565b67ffffffffffffffff81111562000ded5762000dec62000b57565b5b62000df9825462000bb5565b62000e0682828562000d2b565b600060209050601f83116001811462000e3e576000841562000e29578287015190505b62000e35858262000da8565b86555062000ea5565b601f19841662000e4e8662000bea565b60005b8281101562000e785784890151825560018201915060208501945060208101905062000e51565b8683101562000e98578489015162000e94601f89168262000d88565b8355505b6001600288020188555050505b505050505050565b6000819050919050565b62000ec28162000ead565b82525050565b62000ed38162000c72565b82525050565b600073ffffffffffffffffffffffffffffffffffffffff82169050919050565b600062000f068262000ed9565b9050919050565b62000f188162000ef9565b82525050565b600060a08201905062000f35600083018862000eb7565b62000f44602083018762000eb7565b62000f53604083018662000eb7565b62000f62606083018562000ec8565b62000f71608083018462000f0d565b9695505050505050565b600082825260208201905092915050565b7f4552433230566f7465733a20746f74616c20737570706c79207269736b73206f60008201527f766572666c6f77696e6720766f74657300000000000000000000000000000000602082015250565b600062000fea60308362000f7b565b915062000ff78262000f8c565b604082019050919050565b600060208201905081810360008301526200101d8162000fdb565b9050919050565b7f45524332303a206d696e7420746f20746865207a65726f206164647265737300600082015250565b60006200105c601f8362000f7b565b9150620010698262001024565b602082019050919050565b600060208201905081810360008301526200108f816200104d565b9050919050565b7f4e487b7100000000000000000000000000000000000000000000000000000000600052601160045260246000fd5b6000620010d28262000c72565b9150620010df8362000c72565b9250828201905080821115620010fa57620010f962001096565b5b92915050565b600060208201905062001117600083018462000ec8565b92915050565b60006200112a8262000c72565b9150620011378362000c72565b925082820390508181111562001152576200115162001096565b5b92915050565b7f4e487b7100000000000000000000000000000000000000000000000000000000600052603260045260246000fd5b7f53616665436173743a2076616c756520646f65736e27742066697420696e203260008201527f3234206269747300000000000000000000000000000000000000000000000000602082015250565b6000620011e560278362000f7b565b9150620011f28262001187565b604082019050919050565b600060208201905081810360008301526200121881620011d6565b9050919050565b7f53616665436173743a2076616c756520646f65736e27742066697420696e203360008201527f3220626974730000000000000000000000000000000000000000000000000000602082015250565b60006200127d60268362000f7b565b91506200128a826200121f565b604082019050919050565b60006020820190508181036000830152620012b0816200126e565b9050919050565b6000604082019050620012ce600083018562000ec8565b620012dd602083018462000ec8565b9392505050565b60805160a05160c05160e051610100516101205161372362001334600039600061173a0152600061177c0152600061175b01526000611690015260006116e60152600061170f01526137236000f3fe608060405234801561001057600080fd5b506004361061014d5760003560e01c80636fcfff45116100c3578063a457c2d71161007c578063a457c2d714610402578063a9059cbb14610432578063c3cda52014610462578063d505accf1461047e578063dd62ed3e1461049a578063f1127ed8146104ca5761014d565b80636fcfff45146102f457806370a08231146103245780637ecebe00146103545780638e539e8c1461038457806395d89b41146103b45780639ab24eb0146103d25761014d565b80633644e515116101155780633644e5151461020c578063395093511461022a5780633a46b1a81461025a578063587cde1e1461028a5780635c19a95c146102ba5780635d641847146102d65761014d565b806306fdde0314610152578063095ea7b31461017057806318160ddd146101a057806323b872dd146101be578063313ce567146101ee575b600080fd5b61015a6104fa565b6040516101679190612376565b60405180910390f35b61018a60048036038101906101859190612431565b61058c565b604051610197919061248c565b60405180910390f35b6101a86105af565b6040516101b591906124b6565b60405180910390f35b6101d860048036038101906101d391906124d1565b6105b9565b6040516101e5919061248c565b60405180910390f35b6101f66105e8565b6040516102039190612540565b60405180910390f35b6102146105f1565b6040516102219190612574565b60405180910390f35b610244600480360381019061023f9190612431565b610600565b604051610251919061248c565b60405180910390f35b610274600480360381019061026f9190612431565b610637565b60405161028191906124b6565b60405180910390f35b6102a4600480360381019061029f919061258f565b6106cb565b6040516102b191906125cb565b60405180910390f35b6102d460048036038101906102cf919061258f565b610734565b005b6102de610748565b6040516102eb91906124b6565b60405180910390f35b61030e6004803603810190610309919061258f565b61074e565b60405161031b9190612605565b60405180910390f35b61033e6004803603810190610339919061258f565b6107a2565b60405161034b91906124b6565b60405180910390f35b61036e6004803603810190610369919061258f565b6107ea565b60405161037b91906124b6565b60405180910390f35b61039e60048036038101906103999190612620565b61083a565b6040516103ab91906124b6565b60405180910390f35b6103bc610890565b6040516103c99190612376565b60405180910390f35b6103ec60048036038101906103e7919061258f565b610922565b6040516103f991906124b6565b60405180910390f35b61041c60048036038101906104179190612431565b610a33565b604051610429919061248c565b60405180910390f35b61044c60048036038101906104479190612431565b610aaa565b604051610459919061248c565b60405180910390f35b61047c600480360381019061047791906126a5565b610acd565b005b61049860048036038101906104939190612732565b610bd1565b005b6104b460048036038101906104af91906127d4565b610d13565b6040516104c191906124b6565b60405180910390f35b6104e460048036038101906104df9190612840565b610d9a565b6040516104f191906128f5565b60405180910390f35b6060600380546105099061293f565b80601f01602080910402602001604051908101604052809291908181526020018280546105359061293f565b80156105825780601f1061055757610100808354040283529160200191610582565b820191906000526020600020905b81548152906001019060200180831161056557829003601f168201915b5050505050905090565b6000806105976111b0565b90506105a48185856111b8565b600191505092915050565b6000600254905090565b6000806105c46111b0565b90506105d1858285611381565b6105dc85858561140d565b60019150509392505050565b60006012905090565b60006105fb61168c565b905090565b60008061060b6111b0565b905061062c81858561061d8589610d13565b610627919061299f565b6111b8565b600191505092915050565b600043821061067b576040517f08c379a000000000000000000000000000000000000000000000000000000000815260040161067290612a1f565b60405180910390fd5b6106c3600860008573ffffffffffffffffffffffffffffffffffffffff1673ffffffffffffffffffffffffffffffffffffffff168152602001908152602001600020836117a6565b905092915050565b6000600760008373ffffffffffffffffffffffffffffffffffffffff1673ffffffffffffffffffffffffffffffffffffffff16815260200190815260200160002060009054906101000a900473ffffffffffffffffffffffffffffffffffffffff169050919050565b61074561073f6111b0565b826118b2565b50565b600a5481565b600061079b600860008473ffffffffffffffffffffffffffffffffffffffff1673ffffffffffffffffffffffffffffffffffffffff16815260200190815260200160002080549050611117565b9050919050565b60008060008373ffffffffffffffffffffffffffffffffffffffff1673ffffffffffffffffffffffffffffffffffffffff168152602001908152602001600020549050919050565b6000610833600560008473ffffffffffffffffffffffffffffffffffffffff1673ffffffffffffffffffffffffffffffffffffffff1681526020019081526020016000206119cc565b9050919050565b600043821061087e576040517f08c379a000000000000000000000000000000000000000000000000000000000815260040161087590612a1f565b60405180910390fd5b6108896009836117a6565b9050919050565b60606004805461089f9061293f565b80601f01602080910402602001604051908101604052809291908181526020018280546108cb9061293f565b80156109185780601f106108ed57610100808354040283529160200191610918565b820191906000526020600020905b8154815290600101906020018083116108fb57829003601f168201915b5050505050905090565b600080600860008473ffffffffffffffffffffffffffffffffffffffff1673ffffffffffffffffffffffffffffffffffffffff16815260200190815260200160002080549050905060008114610a0a57600860008473ffffffffffffffffffffffffffffffffffffffff1673ffffffffffffffffffffffffffffffffffffffff1681526020019081526020016000206001826109be9190612a3f565b815481106109cf576109ce612a73565b5b9060005260206000200160000160049054906101000a90047bffffffffffffffffffffffffffffffffffffffffffffffffffffffff16610a0d565b60005b7bffffffffffffffffffffffffffffffffffffffffffffffffffffffff16915050919050565b600080610a3e6111b0565b90506000610a4c8286610d13565b905083811015610a91576040517f08c379a0000000000000000000000000000000000000000000000000000000008152600401610a8890612b14565b60405180910390fd5b610a9e82868684036111b8565b60019250505092915050565b600080610ab56111b0565b9050610ac281858561140d565b600191505092915050565b83421115610b10576040517f08c379a0000000000000000000000000000000000000000000000000000000008152600401610b0790612b80565b60405180910390fd5b6000610b72610b6a7fe48329057bfd03d55e49b547132e39cffd9c1820ad7b9d4c5307691425d15adf898989604051602001610b4f9493929190612ba0565b604051602081830303815290604052805190602001206119da565b8585856119f4565b9050610b7d81611a1f565b8614610bbe576040517f08c379a0000000000000000000000000000000000000000000000000000000008152600401610bb590612c31565b60405180910390fd5b610bc881886118b2565b50505050505050565b83421115610c14576040517f08c379a0000000000000000000000000000000000000000000000000000000008152600401610c0b90612c9d565b60405180910390fd5b60007f6e71edae12b1b97f4d1f60370fef10105fa2faae0126114a169c64845d6126c9888888610c438c611a1f565b89604051602001610c5996959493929190612cbd565b6040516020818303038152906040528051906020012090506000610c7c826119da565b90506000610c8c828787876119f4565b90508973ffffffffffffffffffffffffffffffffffffffff168173ffffffffffffffffffffffffffffffffffffffff1614610cfc576040517f08c379a0000000000000000000000000000000000000000000000000000000008152600401610cf390612d6a565b60405180910390fd5b610d078a8a8a6111b8565b50505050505050505050565b6000600160008473ffffffffffffffffffffffffffffffffffffffff1673ffffffffffffffffffffffffffffffffffffffff16815260200190815260200160002060008373ffffffffffffffffffffffffffffffffffffffff1673ffffffffffffffffffffffffffffffffffffffff16815260200190815260200160002054905092915050565b610da26122a8565b600860008473ffffffffffffffffffffffffffffffffffffffff1673ffffffffffffffffffffffffffffffffffffffff1681526020019081526020016000208263ffffffff1681548110610df957610df8612a73565b5b906000526020600020016040518060400160405290816000820160009054906101000a900463ffffffff1663ffffffff1663ffffffff1681526020016000820160049054906101000a90047bffffffffffffffffffffffffffffffffffffffffffffffffffffffff167bffffffffffffffffffffffffffffffffffffffffffffffffffffffff167bffffffffffffffffffffffffffffffffffffffffffffffffffffffff1681525050905092915050565b610eb48282610f37565b610ebc611a7d565b7bffffffffffffffffffffffffffffffffffffffffffffffffffffffff16610ee26105af565b1115610f23576040517f08c379a0000000000000000000000000000000000000000000000000000000008152600401610f1a90612dfc565b60405180910390fd5b610f31600961109683611aa1565b50505050565b600073ffffffffffffffffffffffffffffffffffffffff168273ffffffffffffffffffffffffffffffffffffffff1603610fa6576040517f08c379a0000000000000000000000000000000000000000000000000000000008152600401610f9d90612e68565b60405180910390fd5b610fb260008383611d19565b8060026000828254610fc4919061299f565b92505081905550806000808473ffffffffffffffffffffffffffffffffffffffff1673ffffffffffffffffffffffffffffffffffffffff1681526020019081526020016000206000828254611019919061299f565b925050819055508173ffffffffffffffffffffffffffffffffffffffff16600073ffffffffffffffffffffffffffffffffffffffff167fddf252ad1be2c89b69c2b068fc378daa952ba7f163c4a11628f55a4df523b3ef8360405161107e91906124b6565b60405180910390a361109260008383611d1e565b5050565b600081836110a4919061299f565b905092915050565b60007bffffffffffffffffffffffffffffffffffffffffffffffffffffffff801682111561110f576040517f08c379a000000000000000000000000000000000000000000000000000000000815260040161110690612efa565b60405180910390fd5b819050919050565b600063ffffffff8016821115611162576040517f08c379a000000000000000000000000000000000000000000000000000000000815260040161115990612f8c565b60405180910390fd5b819050919050565b611175838383611195565b611190611181846106cb565b61118a846106cb565b83611d2e565b505050565b505050565b600081836111a89190612a3f565b905092915050565b600033905090565b600073ffffffffffffffffffffffffffffffffffffffff168373ffffffffffffffffffffffffffffffffffffffff1603611227576040517f08c379a000000000000000000000000000000000000000000000000000000000815260040161121e9061301e565b60405180910390fd5b600073ffffffffffffffffffffffffffffffffffffffff168273ffffffffffffffffffffffffffffffffffffffff1603611296576040517f08c379a000000000000000000000000000000000000000000000000000000000815260040161128d906130b0565b60405180910390fd5b80600160008573ffffffffffffffffffffffffffffffffffffffff1673ffffffffffffffffffffffffffffffffffffffff16815260200190815260200160002060008473ffffffffffffffffffffffffffffffffffffffff1673ffffffffffffffffffffffffffffffffffffffff168152602001908152602001600020819055508173ffffffffffffffffffffffffffffffffffffffff168373ffffffffffffffffffffffffffffffffffffffff167f8c5be1e5ebec7d5bd14f71427d1e84f3dd0314c0f7b2291e5b200ac8c7c3b9258360405161137491906124b6565b60405180910390a3505050565b600061138d8484610d13565b90507fffffffffffffffffffffffffffffffffffffffffffffffffffffffffffffffff811461140757818110156113f9576040517f08c379a00000000000000000000000000000000000000000000000000000000081526004016113f09061311c565b60405180910390fd5b61140684848484036111b8565b5b50505050565b600073ffffffffffffffffffffffffffffffffffffffff168373ffffffffffffffffffffffffffffffffffffffff160361147c576040517f08c379a0000000000000000000000000000000000000000000000000000000008152600401611473906131ae565b60405180910390fd5b600073ffffffffffffffffffffffffffffffffffffffff168273ffffffffffffffffffffffffffffffffffffffff16036114eb576040517f08c379a00000000000000000000000000000000000000000000000000000000081526004016114e290613240565b60405180910390fd5b6114f6838383611d19565b60008060008573ffffffffffffffffffffffffffffffffffffffff1673ffffffffffffffffffffffffffffffffffffffff1681526020019081526020016000205490508181101561157c576040517f08c379a0000000000000000000000000000000000000000000000000000000008152600401611573906132d2565b60405180910390fd5b8181036000808673ffffffffffffffffffffffffffffffffffffffff1673ffffffffffffffffffffffffffffffffffffffff16815260200190815260200160002081905550816000808573ffffffffffffffffffffffffffffffffffffffff1673ffffffffffffffffffffffffffffffffffffffff168152602001908152602001600020600082825461160f919061299f565b925050819055508273ffffffffffffffffffffffffffffffffffffffff168473ffffffffffffffffffffffffffffffffffffffff167fddf252ad1be2c89b69c2b068fc378daa952ba7f163c4a11628f55a4df523b3ef8460405161167391906124b6565b60405180910390a3611686848484611d1e565b50505050565b60007f000000000000000000000000000000000000000000000000000000000000000073ffffffffffffffffffffffffffffffffffffffff163073ffffffffffffffffffffffffffffffffffffffff1614801561170857507f000000000000000000000000000000000000000000000000000000000000000046145b15611735577f000000000000000000000000000000000000000000000000000000000000000090506117a3565b6117a07f00000000000000000000000000000000000000000000000000000000000000007f00000000000000000000000000000000000000000000000000000000000000007f0000000000000000000000000000000000000000000000000000000000000000611f27565b90505b90565b6000808380549050905060005b818110156118255760006117c78284611f61565b9050848682815481106117dd576117dc612a73565b5b9060005260206000200160000160009054906101000a900463ffffffff1663ffffffff16111561180f5780925061181f565b60018161181c919061299f565b91505b506117b3565b60008214611887578460018361183b9190612a3f565b8154811061184c5761184b612a73565b5b9060005260206000200160000160049054906101000a90047bffffffffffffffffffffffffffffffffffffffffffffffffffffffff1661188a565b60005b7bffffffffffffffffffffffffffffffffffffffffffffffffffffffff169250505092915050565b60006118bd836106cb565b905060006118ca846107a2565b905082600760008673ffffffffffffffffffffffffffffffffffffffff1673ffffffffffffffffffffffffffffffffffffffff16815260200190815260200160002060006101000a81548173ffffffffffffffffffffffffffffffffffffffff021916908373ffffffffffffffffffffffffffffffffffffffff1602179055508273ffffffffffffffffffffffffffffffffffffffff168273ffffffffffffffffffffffffffffffffffffffff168573ffffffffffffffffffffffffffffffffffffffff167f3134e8a2e6d97e929a7e54011ea5485d7d196dd5f0ba4d4ef95803e8e3fc257f60405160405180910390a46119c6828483611d2e565b50505050565b600081600001549050919050565b60006119ed6119e761168c565b83611f87565b9050919050565b6000806000611a0587878787611fba565b91509150611a12816120c6565b8192505050949350505050565b600080600560008473ffffffffffffffffffffffffffffffffffffffff1673ffffffffffffffffffffffffffffffffffffffff1681526020019081526020016000209050611a6c816119cc565b9150611a7781612292565b50919050565b60007bffffffffffffffffffffffffffffffffffffffffffffffffffffffff905090565b60008060008580549050905060008114611b0f5785600182611ac39190612a3f565b81548110611ad457611ad3612a73565b5b9060005260206000200160000160049054906101000a90047bffffffffffffffffffffffffffffffffffffffffffffffffffffffff16611b12565b60005b7bffffffffffffffffffffffffffffffffffffffffffffffffffffffff169250611b4083858763ffffffff16565b9150600081118015611b9357504386600183611b5c9190612a3f565b81548110611b6d57611b6c612a73565b5b9060005260206000200160000160009054906101000a900463ffffffff1663ffffffff16145b15611c2057611ba1826110ac565b86600183611baf9190612a3f565b81548110611bc057611bbf612a73565b5b9060005260206000200160000160046101000a8154817bffffffffffffffffffffffffffffffffffffffffffffffffffffffff02191690837bffffffffffffffffffffffffffffffffffffffffffffffffffffffff160217905550611d10565b856040518060400160405280611c3543611117565b63ffffffff168152602001611c49856110ac565b7bffffffffffffffffffffffffffffffffffffffffffffffffffffffff168152509080600181540180825580915050600190039060005260206000200160009091909190915060008201518160000160006101000a81548163ffffffff021916908363ffffffff16021790555060208201518160000160046101000a8154817bffffffffffffffffffffffffffffffffffffffffffffffffffffffff02191690837bffffffffffffffffffffffffffffffffffffffffffffffffffffffff16021790555050505b50935093915050565b505050565b611d2983838361116a565b505050565b8173ffffffffffffffffffffffffffffffffffffffff168373ffffffffffffffffffffffffffffffffffffffff1614158015611d6a5750600081115b15611f2257600073ffffffffffffffffffffffffffffffffffffffff168373ffffffffffffffffffffffffffffffffffffffff1614611e4857600080611df1600860008773ffffffffffffffffffffffffffffffffffffffff1673ffffffffffffffffffffffffffffffffffffffff16815260200190815260200160002061119a85611aa1565b915091508473ffffffffffffffffffffffffffffffffffffffff167fdec2bacdd2f05b59de34da9b523dff8be42e5e38e818c82fdb0bae774387a7248383604051611e3d9291906132f2565b60405180910390a250505b600073ffffffffffffffffffffffffffffffffffffffff168273ffffffffffffffffffffffffffffffffffffffff1614611f2157600080611eca600860008673ffffffffffffffffffffffffffffffffffffffff1673ffffffffffffffffffffffffffffffffffffffff16815260200190815260200160002061109685611aa1565b915091508373ffffffffffffffffffffffffffffffffffffffff167fdec2bacdd2f05b59de34da9b523dff8be42e5e38e818c82fdb0bae774387a7248383604051611f169291906132f2565b60405180910390a250505b5b505050565b60008383834630604051602001611f4295949392919061331b565b6040516020818303038152906040528051906020012090509392505050565b60006002828418611f72919061339d565b828416611f7f919061299f565b905092915050565b60008282604051602001611f9c929190613446565b60405160208183030381529060405280519060200120905092915050565b6000807f7fffffffffffffffffffffffffffffff5d576e7357a4501ddfe92f46681b20a08360001c1115611ff55760006003915091506120bd565b601b8560ff161415801561200d5750601c8560ff1614155b1561201f5760006004915091506120bd565b600060018787878760405160008152602001604052604051612044949392919061347d565b6020604051602081039080840390855afa158015612066573d6000803e3d6000fd5b505050602060405103519050600073ffffffffffffffffffffffffffffffffffffffff168173ffffffffffffffffffffffffffffffffffffffff16036120b4576000600192509250506120bd565b80600092509250505b94509492505050565b600060048111156120da576120d96134c2565b5b8160048111156120ed576120ec6134c2565b5b031561228f5760016004811115612107576121066134c2565b5b81600481111561211a576121196134c2565b5b0361215a576040517f08c379a00000000000000000000000000000000000000000000000000000000081526004016121519061353d565b60405180910390fd5b6002600481111561216e5761216d6134c2565b5b816004811115612181576121806134c2565b5b036121c1576040517f08c379a00000000000000000000000000000000000000000000000000000000081526004016121b8906135a9565b60405180910390fd5b600360048111156121d5576121d46134c2565b5b8160048111156121e8576121e76134c2565b5b03612228576040517f08c379a000000000000000000000000000000000000000000000000000000000815260040161221f9061363b565b60405180910390fd5b60048081111561223b5761223a6134c2565b5b81600481111561224e5761224d6134c2565b5b0361228e576040517f08c379a0000000000000000000000000000000000000000000000000000000008152600401612285906136cd565b60405180910390fd5b5b50565b6001816000016000828254019250508190555050565b6040518060400160405280600063ffffffff16815260200160007bffffffffffffffffffffffffffffffffffffffffffffffffffffffff1681525090565b600081519050919050565b600082825260208201905092915050565b60005b83811015612320578082015181840152602081019050612305565b60008484015250505050565b6000601f19601f8301169050919050565b6000612348826122e6565b61235281856122f1565b9350612362818560208601612302565b61236b8161232c565b840191505092915050565b60006020820190508181036000830152612390818461233d565b905092915050565b600080fd5b600073ffffffffffffffffffffffffffffffffffffffff82169050919050565b60006123c88261239d565b9050919050565b6123d8816123bd565b81146123e357600080fd5b50565b6000813590506123f5816123cf565b92915050565b6000819050919050565b61240e816123fb565b811461241957600080fd5b50565b60008135905061242b81612405565b92915050565b6000806040838503121561244857612447612398565b5b6000612456858286016123e6565b92505060206124678582860161241c565b9150509250929050565b60008115159050919050565b61248681612471565b82525050565b60006020820190506124a1600083018461247d565b92915050565b6124b0816123fb565b82525050565b60006020820190506124cb60008301846124a7565b92915050565b6000806000606084860312156124ea576124e9612398565b5b60006124f8868287016123e6565b9350506020612509868287016123e6565b925050604061251a8682870161241c565b9150509250925092565b600060ff82169050919050565b61253a81612524565b82525050565b60006020820190506125556000830184612531565b92915050565b6000819050919050565b61256e8161255b565b82525050565b60006020820190506125896000830184612565565b92915050565b6000602082840312156125a5576125a4612398565b5b60006125b3848285016123e6565b91505092915050565b6125c5816123bd565b82525050565b60006020820190506125e060008301846125bc565b92915050565b600063ffffffff82169050919050565b6125ff816125e6565b82525050565b600060208201905061261a60008301846125f6565b92915050565b60006020828403121561263657612635612398565b5b60006126448482850161241c565b91505092915050565b61265681612524565b811461266157600080fd5b50565b6000813590506126738161264d565b92915050565b6126828161255b565b811461268d57600080fd5b50565b60008135905061269f81612679565b92915050565b60008060008060008060c087890312156126c2576126c1612398565b5b60006126d089828a016123e6565b96505060206126e189828a0161241c565b95505060406126f289828a0161241c565b945050606061270389828a01612664565b935050608061271489828a01612690565b92505060a061272589828a01612690565b9150509295509295509295565b600080600080600080600060e0888a03121561275157612750612398565b5b600061275f8a828b016123e6565b97505060206127708a828b016123e6565b96505060406127818a828b0161241c565b95505060606127928a828b0161241c565b94505060806127a38a828b01612664565b93505060a06127b48a828b01612690565b92505060c06127c58a828b01612690565b91505092959891949750929550565b600080604083850312156127eb576127ea612398565b5b60006127f9858286016123e6565b925050602061280a858286016123e6565b9150509250929050565b61281d816125e6565b811461282857600080fd5b50565b60008135905061283a81612814565b92915050565b6000806040838503121561285757612856612398565b5b6000612865858286016123e6565b92505060206128768582860161282b565b9150509250929050565b612889816125e6565b82525050565b60007bffffffffffffffffffffffffffffffffffffffffffffffffffffffff82169050919050565b6128c08161288f565b82525050565b6040820160008201516128dc6000850182612880565b5060208201516128ef60208501826128b7565b50505050565b600060408201905061290a60008301846128c6565b92915050565b7f4e487b7100000000000000000000000000000000000000000000000000000000600052602260045260246000fd5b6000600282049050600182168061295757607f821691505b60208210810361296a57612969612910565b5b50919050565b7f4e487b7100000000000000000000000000000000000000000000000000000000600052601160045260246000fd5b60006129aa826123fb565b91506129b5836123fb565b92508282019050808211156129cd576129cc612970565b5b92915050565b7f4552433230566f7465733a20626c6f636b206e6f7420796574206d696e656400600082015250565b6000612a09601f836122f1565b9150612a14826129d3565b602082019050919050565b60006020820190508181036000830152612a38816129fc565b9050919050565b6000612a4a826123fb565b9150612a55836123fb565b9250828203905081811115612a6d57612a6c612970565b5b92915050565b7f4e487b7100000000000000000000000000000000000000000000000000000000600052603260045260246000fd5b7f45524332303a2064656372656173656420616c6c6f77616e63652062656c6f7760008201527f207a65726f000000000000000000000000000000000000000000000000000000602082015250565b6000612afe6025836122f1565b9150612b0982612aa2565b604082019050919050565b60006020820190508181036000830152612b2d81612af1565b9050919050565b7f4552433230566f7465733a207369676e61747572652065787069726564000000600082015250565b6000612b6a601d836122f1565b9150612b7582612b34565b602082019050919050565b60006020820190508181036000830152612b9981612b5d565b9050919050565b6000608082019050612bb56000830187612565565b612bc260208301866125bc565b612bcf60408301856124a7565b612bdc60608301846124a7565b95945050505050565b7f4552433230566f7465733a20696e76616c6964206e6f6e636500000000000000600082015250565b6000612c1b6019836122f1565b9150612c2682612be5565b602082019050919050565b60006020820190508181036000830152612c4a81612c0e565b9050919050565b7f45524332305065726d69743a206578706972656420646561646c696e65000000600082015250565b6000612c87601d836122f1565b9150612c9282612c51565b602082019050919050565b60006020820190508181036000830152612cb681612c7a565b9050919050565b600060c082019050612cd26000830189612565565b612cdf60208301886125bc565b612cec60408301876125bc565b612cf960608301866124a7565b612d0660808301856124a7565b612d1360a08301846124a7565b979650505050505050565b7f45524332305065726d69743a20696e76616c6964207369676e61747572650000600082015250565b6000612d54601e836122f1565b9150612d5f82612d1e565b602082019050919050565b60006020820190508181036000830152612d8381612d47565b9050919050565b7f4552433230566f7465733a20746f74616c20737570706c79207269736b73206f60008201527f766572666c6f77696e6720766f74657300000000000000000000000000000000602082015250565b6000612de66030836122f1565b9150612df182612d8a565b604082019050919050565b60006020820190508181036000830152612e1581612dd9565b9050919050565b7f45524332303a206d696e7420746f20746865207a65726f206164647265737300600082015250565b6000612e52601f836122f1565b9150612e5d82612e1c565b602082019050919050565b60006020820190508181036000830152612e8181612e45565b9050919050565b7f53616665436173743a2076616c756520646f65736e27742066697420696e203260008201527f3234206269747300000000000000000000000000000000000000000000000000602082015250565b6000612ee46027836122f1565b9150612eef82612e88565b604082019050919050565b60006020820190508181036000830152612f1381612ed7565b9050919050565b7f53616665436173743a2076616c756520646f65736e27742066697420696e203360008201527f3220626974730000000000000000000000000000000000000000000000000000602082015250565b6000612f766026836122f1565b9150612f8182612f1a565b604082019050919050565b60006020820190508181036000830152612fa581612f69565b9050919050565b7f45524332303a20617070726f76652066726f6d20746865207a65726f2061646460008201527f7265737300000000000000000000000000000000000000000000000000000000602082015250565b60006130086024836122f1565b915061301382612fac565b604082019050919050565b6000602082019050818103600083015261303781612ffb565b9050919050565b7f45524332303a20617070726f766520746f20746865207a65726f20616464726560008201527f7373000000000000000000000000000000000000000000000000000000000000602082015250565b600061309a6022836122f1565b91506130a58261303e565b604082019050919050565b600060208201905081810360008301526130c98161308d565b9050919050565b7f45524332303a20696e73756666696369656e7420616c6c6f77616e6365000000600082015250565b6000613106601d836122f1565b9150613111826130d0565b602082019050919050565b60006020820190508181036000830152613135816130f9565b9050919050565b7f45524332303a207472616e736665722066726f6d20746865207a65726f20616460008201527f6472657373000000000000000000000000000000000000000000000000000000602082015250565b60006131986025836122f1565b91506131a38261313c565b604082019050919050565b600060208201905081810360008301526131c78161318b565b9050919050565b7f45524332303a207472616e7366657220746f20746865207a65726f206164647260008201527f6573730000000000000000000000000000000000000000000000000000000000602082015250565b600061322a6023836122f1565b9150613235826131ce565b604082019050919050565b600060208201905081810360008301526132598161321d565b9050919050565b7f45524332303a207472616e7366657220616d6f756e742065786365656473206260008201527f616c616e63650000000000000000000000000000000000000000000000000000602082015250565b60006132bc6026836122f1565b91506132c782613260565b604082019050919050565b600060208201905081810360008301526132eb816132af565b9050919050565b600060408201905061330760008301856124a7565b61331460208301846124a7565b9392505050565b600060a0820190506133306000830188612565565b61333d6020830187612565565b61334a6040830186612565565b61335760608301856124a7565b61336460808301846125bc565b9695505050505050565b7f4e487b7100000000000000000000000000000000000000000000000000000000600052601260045260246000fd5b60006133a8826123fb565b91506133b3836123fb565b9250826133c3576133c261336e565b5b828204905092915050565b600081905092915050565b7f1901000000000000000000000000000000000000000000000000000000000000600082015250565b600061340f6002836133ce565b915061341a826133d9565b600282019050919050565b6000819050919050565b61344061343b8261255b565b613425565b82525050565b600061345182613402565b915061345d828561342f565b60208201915061346d828461342f565b6020820191508190509392505050565b60006080820190506134926000830187612565565b61349f6020830186612531565b6134ac6040830185612565565b6134b96060830184612565565b95945050505050565b7f4e487b7100000000000000000000000000000000000000000000000000000000600052602160045260246000fd5b7f45434453413a20696e76616c6964207369676e61747572650000000000000000600082015250565b60006135276018836122f1565b9150613532826134f1565b602082019050919050565b600060208201905081810360008301526135568161351a565b9050919050565b7f45434453413a20696e76616c6964207369676e6174757265206c656e67746800600082015250565b6000613593601f836122f1565b915061359e8261355d565b602082019050919050565b600060208201905081810360008301526135c281613586565b9050919050565b7f45434453413a20696e76616c6964207369676e6174757265202773272076616c60008201527f7565000000000000000000000000000000000000000000000000000000000000602082015250565b60006136256022836122f1565b9150613630826135c9565b604082019050919050565b6000602082019050818103600083015261365481613618565b9050919050565b7f45434453413a20696e76616c6964207369676e6174757265202776272076616c60008201527f7565000000000000000000000000000000000000000000000000000000000000602082015250565b60006136b76022836122f1565b91506136c28261365b565b604082019050919050565b600060208201905081810360008301526136e6816136aa565b905091905056fea2646970667358221220b2f3c67169b6879b84005a00afacdf98925c0f4e25cb0118a06f6804490d1bfa64736f6c63430008110033",
  "linkReferences": {},
  "deployedLinkReferences": {}
}