{
  "address": "0x05d507d24129A268f479E861A7869AcAD4B3F6aD",
  "abi": [
    {
      "inputs": [
        {
          "internalType": "address",
          "name": "priceFeedAddress",
          "type": "address"
        },
        {
          "internalType": "string",
          "name": "lowSVG",
          "type": "string"
        },
        {
          "internalType": "string",
          "name": "highSVG",
          "type": "string"
        }
      ],
      "stateMutability": "nonpayable",
      "type": "constructor"
    },
    {
      "anonymous": false,
      "inputs": [
        {
          "indexed": true,
          "internalType": "address",
          "name": "owner",
          "type": "address"
        },
        {
          "indexed": true,
          "internalType": "address",
          "name": "approved",
          "type": "address"
        },
        {
          "indexed": true,
          "internalType": "uint256",
          "name": "tokenId",
          "type": "uint256"
        }
      ],
      "name": "Approval",
      "type": "event"
    },
    {
      "anonymous": false,
      "inputs": [
        {
          "indexed": true,
          "internalType": "address",
          "name": "owner",
          "type": "address"
        },
        {
          "indexed": true,
          "internalType": "address",
          "name": "operator",
          "type": "address"
        },
        {
          "indexed": false,
          "internalType": "bool",
          "name": "approved",
          "type": "bool"
        }
      ],
      "name": "ApprovalForAll",
      "type": "event"
    },
    {
      "anonymous": false,
      "inputs": [
        {
          "indexed": true,
          "internalType": "uint256",
          "name": "tokenId",
          "type": "uint256"
        },
        {
          "indexed": false,
          "internalType": "int256",
          "name": "highValue",
          "type": "int256"
        }
      ],
      "name": "CreatedNFT",
      "type": "event"
    },
    {
      "anonymous": false,
      "inputs": [
        {
          "indexed": true,
          "internalType": "address",
          "name": "from",
          "type": "address"
        },
        {
          "indexed": true,
          "internalType": "address",
          "name": "to",
          "type": "address"
        },
        {
          "indexed": true,
          "internalType": "uint256",
          "name": "tokenId",
          "type": "uint256"
        }
      ],
      "name": "Transfer",
      "type": "event"
    },
    {
      "inputs": [
        {
          "internalType": "address",
          "name": "to",
          "type": "address"
        },
        {
          "internalType": "uint256",
          "name": "tokenId",
          "type": "uint256"
        }
      ],
      "name": "approve",
      "outputs": [],
      "stateMutability": "nonpayable",
      "type": "function"
    },
    {
      "inputs": [
        {
          "internalType": "address",
          "name": "owner",
          "type": "address"
        }
      ],
      "name": "balanceOf",
      "outputs": [
        {
          "internalType": "uint256",
          "name": "",
          "type": "uint256"
        }
      ],
      "stateMutability": "view",
      "type": "function"
    },
    {
      "inputs": [
        {
          "internalType": "uint256",
          "name": "tokenId",
          "type": "uint256"
        }
      ],
      "name": "getApproved",
      "outputs": [
        {
          "internalType": "address",
          "name": "",
          "type": "address"
        }
      ],
      "stateMutability": "view",
      "type": "function"
    },
    {
      "inputs": [],
      "name": "getHighSVG",
      "outputs": [
        {
          "internalType": "string",
          "name": "",
          "type": "string"
        }
      ],
      "stateMutability": "view",
      "type": "function"
    },
    {
      "inputs": [],
      "name": "getLowSVG",
      "outputs": [
        {
          "internalType": "string",
          "name": "",
          "type": "string"
        }
      ],
      "stateMutability": "view",
      "type": "function"
    },
    {
      "inputs": [],
      "name": "getPackedEncodedHighSVGURI",
      "outputs": [
        {
          "internalType": "string",
          "name": "",
          "type": "string"
        }
      ],
      "stateMutability": "view",
      "type": "function"
    },
    {
      "inputs": [],
      "name": "getPackedEncodedLowSVGURI",
      "outputs": [
        {
          "internalType": "string",
          "name": "",
          "type": "string"
        }
      ],
      "stateMutability": "view",
      "type": "function"
    },
    {
      "inputs": [],
      "name": "getPriceFeedAddress",
      "outputs": [
        {
          "internalType": "contract AggregatorV3Interface",
          "name": "",
          "type": "address"
        }
      ],
      "stateMutability": "view",
      "type": "function"
    },
    {
      "inputs": [],
      "name": "getTokenCounter",
      "outputs": [
        {
          "internalType": "uint256",
          "name": "",
          "type": "uint256"
        }
      ],
      "stateMutability": "view",
      "type": "function"
    },
    {
      "inputs": [
        {
          "internalType": "address",
          "name": "owner",
          "type": "address"
        },
        {
          "internalType": "address",
          "name": "operator",
          "type": "address"
        }
      ],
      "name": "isApprovedForAll",
      "outputs": [
        {
          "internalType": "bool",
          "name": "",
          "type": "bool"
        }
      ],
      "stateMutability": "view",
      "type": "function"
    },
    {
      "inputs": [
        {
          "internalType": "int256",
          "name": "highValue",
          "type": "int256"
        }
      ],
      "name": "mintNFT",
      "outputs": [],
      "stateMutability": "nonpayable",
      "type": "function"
    },
    {
      "inputs": [],
      "name": "name",
      "outputs": [
        {
          "internalType": "string",
          "name": "",
          "type": "string"
        }
      ],
      "stateMutability": "view",
      "type": "function"
    },
    {
      "inputs": [
        {
          "internalType": "uint256",
          "name": "tokenId",
          "type": "uint256"
        }
      ],
      "name": "ownerOf",
      "outputs": [
        {
          "internalType": "address",
          "name": "",
          "type": "address"
        }
      ],
      "stateMutability": "view",
      "type": "function"
    },
    {
      "inputs": [
        {
          "internalType": "uint256",
          "name": "",
          "type": "uint256"
        }
      ],
      "name": "s_tokenIdToHighValue",
      "outputs": [
        {
          "internalType": "int256",
          "name": "",
          "type": "int256"
        }
      ],
      "stateMutability": "view",
      "type": "function"
    },
    {
      "inputs": [
        {
          "internalType": "address",
          "name": "from",
          "type": "address"
        },
        {
          "internalType": "address",
          "name": "to",
          "type": "address"
        },
        {
          "internalType": "uint256",
          "name": "tokenId",
          "type": "uint256"
        }
      ],
      "name": "safeTransferFrom",
      "outputs": [],
      "stateMutability": "nonpayable",
      "type": "function"
    },
    {
      "inputs": [
        {
          "internalType": "address",
          "name": "from",
          "type": "address"
        },
        {
          "internalType": "address",
          "name": "to",
          "type": "address"
        },
        {
          "internalType": "uint256",
          "name": "tokenId",
          "type": "uint256"
        },
        {
          "internalType": "bytes",
          "name": "data",
          "type": "bytes"
        }
      ],
      "name": "safeTransferFrom",
      "outputs": [],
      "stateMutability": "nonpayable",
      "type": "function"
    },
    {
      "inputs": [
        {
          "internalType": "address",
          "name": "operator",
          "type": "address"
        },
        {
          "internalType": "bool",
          "name": "approved",
          "type": "bool"
        }
      ],
      "name": "setApprovalForAll",
      "outputs": [],
      "stateMutability": "nonpayable",
      "type": "function"
    },
    {
      "inputs": [
        {
          "internalType": "bytes4",
          "name": "interfaceId",
          "type": "bytes4"
        }
      ],
      "name": "supportsInterface",
      "outputs": [
        {
          "internalType": "bool",
          "name": "",
          "type": "bool"
        }
      ],
      "stateMutability": "view",
      "type": "function"
    },
    {
      "inputs": [
        {
          "internalType": "string",
          "name": "svg",
          "type": "string"
        }
      ],
      "name": "svgToImageURI",
      "outputs": [
        {
          "internalType": "string",
          "name": "",
          "type": "string"
        }
      ],
      "stateMutability": "pure",
      "type": "function"
    },
    {
      "inputs": [],
      "name": "symbol",
      "outputs": [
        {
          "internalType": "string",
          "name": "",
          "type": "string"
        }
      ],
      "stateMutability": "view",
      "type": "function"
    },
    {
      "inputs": [
        {
          "internalType": "uint256",
          "name": "tokenId",
          "type": "uint256"
        }
      ],
      "name": "tokenURI",
      "outputs": [
        {
          "internalType": "string",
          "name": "",
          "type": "string"
        }
      ],
      "stateMutability": "view",
      "type": "function"
    },
    {
      "inputs": [
        {
          "internalType": "address",
          "name": "from",
          "type": "address"
        },
        {
          "internalType": "address",
          "name": "to",
          "type": "address"
        },
        {
          "internalType": "uint256",
          "name": "tokenId",
          "type": "uint256"
        }
      ],
      "name": "transferFrom",
      "outputs": [],
      "stateMutability": "nonpayable",
      "type": "function"
    }
  ],
  "transactionHash": "0xc07c7176001301065486995d323fa2d1b2bea22909e5f3044eb4054fdd098560",
  "args": [
    "0xD4a33860578De61DBAbDc8BFdb98FD742fA7028e",
    "<?xml version=\"1.0\" standalone=\"no\"?>\n<svg width=\"1024px\" height=\"1024px\" viewBox=\"0 0 1024 1024\" xmlns=\"http://www.w3.org/2000/svg\">\n  <path fill=\"#333\" d=\"M512 64C264.6 64 64 264.6 64 512s200.6 448 448 448 448-200.6 448-448S759.4 64 512 64zm0 820c-205.4 0-372-166.6-372-372s166.6-372 372-372 372 166.6 372 372-166.6 372-372 372z\"/>\n  <path fill=\"#E6E6E6\" d=\"M512 140c-205.4 0-372 166.6-372 372s166.6 372 372 372 372-166.6 372-372-166.6-372-372-372zM288 421a48.01 48.01 0 0 1 96 0 48.01 48.01 0 0 1-96 0zm376 272h-48.1c-4.2 0-7.8-3.2-8.1-7.4C604 636.1 562.5 597 512 597s-92.1 39.1-95.8 88.6c-.3 4.2-3.9 7.4-8.1 7.4H360a8 8 0 0 1-8-8.4c4.4-84.3 74.5-151.6 160-151.6s155.6 67.3 160 151.6a8 8 0 0 1-8 8.4zm24-224a48.01 48.01 0 0 1 0-96 48.01 48.01 0 0 1 0 96z\"/>\n  <path fill=\"#333\" d=\"M288 421a48 48 0 1 0 96 0 48 48 0 1 0-96 0zm224 112c-85.5 0-155.6 67.3-160 151.6a8 8 0 0 0 8 8.4h48.1c4.2 0 7.8-3.2 8.1-7.4 3.7-49.5 45.3-88.6 95.8-88.6s92 39.1 95.8 88.6c.3 4.2 3.9 7.4 8.1 7.4H664a8 8 0 0 0 8-8.4C667.6 600.3 597.5 533 512 533zm128-112a48 48 0 1 0 96 0 48 48 0 1 0-96 0z\"/>\n</svg>",
    "<svg viewBox=\"0 0 200 200\" width=\"400\"  height=\"400\" xmlns=\"http://www.w3.org/2000/svg\">\n  <circle cx=\"100\" cy=\"100\" fill=\"yellow\" r=\"78\" stroke=\"black\" stroke-width=\"3\"/>\n  <g class=\"eyes\">\n    <circle cx=\"61\" cy=\"82\" r=\"12\"/>\n    <circle cx=\"127\" cy=\"82\" r=\"12\"/>\n  </g>\n  <path d=\"m136.81 116.53c.69 26.17-64.11 42-81.52-.73\" style=\"fill:none; stroke: black; stroke-width: 3;\"/>\n</svg>"
  ],
  "numDeployments": 2,
  "solcInputHash": "c2fbfc94fe4ff4f327d9e81a950ed486",
  "bytecode": "0x60a06040523480156200001157600080fd5b5060405162003d2338038062003d23833981810160405281019062000037919062000575565b6040518060400160405280600f81526020017f44796e616d696320535647204e465400000000000000000000000000000000008152506040518060400160405280600381526020017f44534e00000000000000000000000000000000000000000000000000000000008152508160009081620000b491906200085a565b508060019081620000c691906200085a565b5050506000600681905550620000e2826200015260201b60201c565b60079081620000f291906200085a565b5062000104816200015260201b60201c565b600890816200011491906200085a565b508273ffffffffffffffffffffffffffffffffffffffff1660808173ffffffffffffffffffffffffffffffffffffffff168152505050505062000ae0565b606060006200018d836040516020016200016d919062000983565b604051602081830303815290604052620001f060201b6200106b1760201c565b90506040518060400160405280601a81526020017f646174613a696d6167652f7376672b786d6c3b6261736536342c00000000000081525081604051602001620001d99291906200099c565b604051602081830303815290604052915050919050565b60606000825103620002145760405180602001604052806000815250905062000378565b600060405180606001604052806040815260200162003ce36040913990506000600360028551620002469190620009f3565b62000252919062000a5d565b600462000260919062000a95565b90506000602082620002739190620009f3565b67ffffffffffffffff8111156200028f576200028e62000411565b5b6040519080825280601f01601f191660200182016040528015620002c25781602001600182028036833780820191505090505b509050818152600183018586518101602084015b8183101562000333576003830192508251603f8160121c168501518253600182019150603f81600c1c168501518253600182019150603f8160061c168501518253600182019150603f8116850151825360018201915050620002d6565b60038951066001811462000350576002811462000361576200036c565b613d3d60f01b60028303526200036c565b603d60f81b60018303525b50505050508093505050505b919050565b6000604051905090565b600080fd5b600080fd5b600073ffffffffffffffffffffffffffffffffffffffff82169050919050565b6000620003be8262000391565b9050919050565b620003d081620003b1565b8114620003dc57600080fd5b50565b600081519050620003f081620003c5565b92915050565b600080fd5b600080fd5b6000601f19601f8301169050919050565b7f4e487b7100000000000000000000000000000000000000000000000000000000600052604160045260246000fd5b6200044b8262000400565b810181811067ffffffffffffffff821117156200046d576200046c62000411565b5b80604052505050565b6000620004826200037d565b905062000490828262000440565b919050565b600067ffffffffffffffff821115620004b357620004b262000411565b5b620004be8262000400565b9050602081019050919050565b60005b83811015620004eb578082015181840152602081019050620004ce565b60008484015250505050565b60006200050e620005088462000495565b62000476565b9050828152602081018484840111156200052d576200052c620003fb565b5b6200053a848285620004cb565b509392505050565b600082601f8301126200055a5762000559620003f6565b5b81516200056c848260208601620004f7565b91505092915050565b60008060006060848603121562000591576200059062000387565b5b6000620005a186828701620003df565b935050602084015167ffffffffffffffff811115620005c557620005c46200038c565b5b620005d38682870162000542565b925050604084015167ffffffffffffffff811115620005f757620005f66200038c565b5b620006058682870162000542565b9150509250925092565b600081519050919050565b7f4e487b7100000000000000000000000000000000000000000000000000000000600052602260045260246000fd5b600060028204905060018216806200066257607f821691505b6020821081036200067857620006776200061a565b5b50919050565b60008190508160005260206000209050919050565b60006020601f8301049050919050565b600082821b905092915050565b600060088302620006e27fffffffffffffffffffffffffffffffffffffffffffffffffffffffffffffffff82620006a3565b620006ee8683620006a3565b95508019841693508086168417925050509392505050565b6000819050919050565b6000819050919050565b60006200073b620007356200072f8462000706565b62000710565b62000706565b9050919050565b6000819050919050565b62000757836200071a565b6200076f620007668262000742565b848454620006b0565b825550505050565b600090565b6200078662000777565b620007938184846200074c565b505050565b5b81811015620007bb57620007af6000826200077c565b60018101905062000799565b5050565b601f8211156200080a57620007d4816200067e565b620007df8462000693565b81016020851015620007ef578190505b62000807620007fe8562000693565b83018262000798565b50505b505050565b600082821c905092915050565b60006200082f600019846008026200080f565b1980831691505092915050565b60006200084a83836200081c565b9150826002028217905092915050565b62000865826200060f565b67ffffffffffffffff81111562000881576200088062000411565b5b6200088d825462000649565b6200089a828285620007bf565b600060209050601f831160018114620008d25760008415620008bd578287015190505b620008c985826200083c565b86555062000939565b601f198416620008e2866200067e565b60005b828110156200090c57848901518255600182019150602085019450602081019050620008e5565b868310156200092c578489015162000928601f8916826200081c565b8355505b6001600288020188555050505b505050505050565b600081905092915050565b600062000959826200060f565b62000965818562000941565b935062000977818560208601620004cb565b80840191505092915050565b60006200099182846200094c565b915081905092915050565b6000620009aa82856200094c565b9150620009b882846200094c565b91508190509392505050565b7f4e487b7100000000000000000000000000000000000000000000000000000000600052601160045260246000fd5b600062000a008262000706565b915062000a0d8362000706565b925082820190508082111562000a285762000a27620009c4565b5b92915050565b7f4e487b7100000000000000000000000000000000000000000000000000000000600052601260045260246000fd5b600062000a6a8262000706565b915062000a778362000706565b92508262000a8a5762000a8962000a2e565b5b828204905092915050565b600062000aa28262000706565b915062000aaf8362000706565b925082820262000abf8162000706565b9150828204841483151762000ad95762000ad8620009c4565b5b5092915050565b6080516131e062000b03600039600081816107950152610c2301526131e06000f3fe608060405234801561001057600080fd5b50600436106101425760003560e01c806370a08231116100b8578063c87b56dd1161007c578063c87b56dd14610377578063d358164b146103a7578063e2ed50cb146103c5578063e425aded146103e1578063e985e9c514610411578063ed28a1221461044157610142565b806370a08231146102d357806376f6056b1461030357806395d89b4114610321578063a22cb4651461033f578063b88d4fde1461035b57610142565b80630f0f30b21161010a5780630f0f30b2146101ff57806323b872dd1461021d57806330d871c61461023957806342842e0e146102695780636352211e146102855780636e02007d146102b557610142565b806301ffc9a7146101475780630359ac161461017757806306fdde0314610195578063081812fc146101b3578063095ea7b3146101e3575b600080fd5b610161600480360381019061015c9190611d37565b61045f565b60405161016e9190611d7f565b60405180910390f35b61017f610541565b60405161018c9190611e2a565b60405180910390f35b61019d6105a2565b6040516101aa9190611e2a565b60405180910390f35b6101cd60048036038101906101c89190611e82565b610634565b6040516101da9190611ef0565b60405180910390f35b6101fd60048036038101906101f89190611f37565b61067a565b005b610207610791565b6040516102149190611fd6565b60405180910390f35b61023760048036038101906102329190611ff1565b6107b9565b005b610253600480360381019061024e9190612179565b610819565b6040516102609190611e2a565b60405180910390f35b610283600480360381019061027e9190611ff1565b6108a6565b005b61029f600480360381019061029a9190611e82565b6108c6565b6040516102ac9190611ef0565b60405180910390f35b6102bd610977565b6040516102ca91906121d1565b60405180910390f35b6102ed60048036038101906102e891906121ec565b610981565b6040516102fa91906121d1565b60405180910390f35b61030b610a38565b6040516103189190611e2a565b60405180910390f35b610329610aca565b6040516103369190611e2a565b60405180910390f35b61035960048036038101906103549190612245565b610b5c565b005b61037560048036038101906103709190612326565b610b72565b005b610391600480360381019061038c9190611e82565b610bd4565b60405161039e9190611e2a565b60405180910390f35b6103af610e4f565b6040516103bc9190611e2a565b60405180910390f35b6103df60048036038101906103da91906123df565b610eb0565b005b6103fb60048036038101906103f69190611e82565b610f2d565b604051610408919061241b565b60405180910390f35b61042b60048036038101906104269190612436565b610f45565b6040516104389190611d7f565b60405180910390f35b610449610fd9565b6040516104569190611e2a565b60405180910390f35b60007f80ac58cd000000000000000000000000000000000000000000000000000000007bffffffffffffffffffffffffffffffffffffffffffffffffffffffff1916827bffffffffffffffffffffffffffffffffffffffffffffffffffffffff1916148061052a57507f5b5e139f000000000000000000000000000000000000000000000000000000007bffffffffffffffffffffffffffffffffffffffffffffffffffffffff1916827bffffffffffffffffffffffffffffffffffffffffffffffffffffffff1916145b8061053a5750610539826111e3565b5b9050919050565b606061054b61124d565b61057d6105566105a2565b6007604051602001610569929190612772565b60405160208183030381529060405261106b565b60405160200161058e9291906127c2565b604051602081830303815290604052905090565b6060600080546105b19061265d565b80601f01602080910402602001604051908101604052809291908181526020018280546105dd9061265d565b801561062a5780601f106105ff5761010080835404028352916020019161062a565b820191906000526020600020905b81548152906001019060200180831161060d57829003601f168201915b5050505050905090565b600061063f8261128a565b6004600083815260200190815260200160002060009054906101000a900473ffffffffffffffffffffffffffffffffffffffff169050919050565b6000610685826108c6565b90508073ffffffffffffffffffffffffffffffffffffffff168373ffffffffffffffffffffffffffffffffffffffff16036106f5576040517f08c379a00000000000000000000000000000000000000000000000000000000081526004016106ec90612858565b60405180910390fd5b8073ffffffffffffffffffffffffffffffffffffffff166107146112d5565b73ffffffffffffffffffffffffffffffffffffffff16148061074357506107428161073d6112d5565b610f45565b5b610782576040517f08c379a0000000000000000000000000000000000000000000000000000000008152600401610779906128ea565b60405180910390fd5b61078c83836112dd565b505050565b60007f0000000000000000000000000000000000000000000000000000000000000000905090565b6107ca6107c46112d5565b82611396565b610809576040517f08c379a00000000000000000000000000000000000000000000000000000000081526004016108009061297c565b60405180910390fd5b61081483838361142b565b505050565b6060600061084583604051602001610831919061299c565b60405160208183030381529060405261106b565b90506040518060400160405280601a81526020017f646174613a696d6167652f7376672b786d6c3b6261736536342c0000000000008152508160405160200161088f9291906127c2565b604051602081830303815290604052915050919050565b6108c183838360405180602001604052806000815250610b72565b505050565b6000806002600084815260200190815260200160002060009054906101000a900473ffffffffffffffffffffffffffffffffffffffff169050600073ffffffffffffffffffffffffffffffffffffffff168173ffffffffffffffffffffffffffffffffffffffff160361096e576040517f08c379a0000000000000000000000000000000000000000000000000000000008152600401610965906129ff565b60405180910390fd5b80915050919050565b6000600654905090565b60008073ffffffffffffffffffffffffffffffffffffffff168273ffffffffffffffffffffffffffffffffffffffff16036109f1576040517f08c379a00000000000000000000000000000000000000000000000000000000081526004016109e890612a91565b60405180910390fd5b600360008373ffffffffffffffffffffffffffffffffffffffff1673ffffffffffffffffffffffffffffffffffffffff168152602001908152602001600020549050919050565b606060088054610a479061265d565b80601f0160208091040260200160405190810160405280929190818152602001828054610a739061265d565b8015610ac05780601f10610a9557610100808354040283529160200191610ac0565b820191906000526020600020905b815481529060010190602001808311610aa357829003601f168201915b5050505050905090565b606060018054610ad99061265d565b80601f0160208091040260200160405190810160405280929190818152602001828054610b059061265d565b8015610b525780601f10610b2757610100808354040283529160200191610b52565b820191906000526020600020905b815481529060010190602001808311610b3557829003601f168201915b5050505050905090565b610b6e610b676112d5565b8383611691565b5050565b610b83610b7d6112d5565b83611396565b610bc2576040517f08c379a0000000000000000000000000000000000000000000000000000000008152600401610bb99061297c565b60405180910390fd5b610bce848484846117fd565b50505050565b6060610bdf82611859565b15610c1f576040517f08c379a0000000000000000000000000000000000000000000000000000000008152600401610c1690612afd565b60405180910390fd5b60007f000000000000000000000000000000000000000000000000000000000000000073ffffffffffffffffffffffffffffffffffffffff1663feaf968c6040518163ffffffff1660e01b815260040160a060405180830381865afa158015610c8c573d6000803e3d6000fd5b505050506040513d601f19601f82011682018060405250810190610cb09190612b89565b505050915050600060078054610cc59061265d565b80601f0160208091040260200160405190810160405280929190818152602001828054610cf19061265d565b8015610d3e5780601f10610d1357610100808354040283529160200191610d3e565b820191906000526020600020905b815481529060010190602001808311610d2157829003601f168201915b5050505050905060096000858152602001908152602001600020548212610ded5760088054610d6c9061265d565b80601f0160208091040260200160405190810160405280929190818152602001828054610d989061265d565b8015610de55780601f10610dba57610100808354040283529160200191610de5565b820191906000526020600020905b815481529060010190602001808311610dc857829003601f168201915b505050505090505b610df561124d565b610e26610e006105a2565b83604051602001610e12929190612c04565b60405160208183030381529060405261106b565b604051602001610e379291906127c2565b60405160208183030381529060405292505050919050565b6060610e5961124d565b610e8b610e646105a2565b6008604051602001610e77929190612772565b60405160208183030381529060405261106b565b604051602001610e9c9291906127c2565b604051602081830303815290604052905090565b8060096000600654815260200190815260200160002081905550600160066000828254610edd9190612c83565b92505081905550610ef0336006546118c5565b6006547f882d3b5a729a8bb95cf6c0083c99b42ecd9637123d4425bd7b768877fd8af8b082604051610f22919061241b565b60405180910390a250565b60096020528060005260406000206000915090505481565b6000600560008473ffffffffffffffffffffffffffffffffffffffff1673ffffffffffffffffffffffffffffffffffffffff16815260200190815260200160002060008373ffffffffffffffffffffffffffffffffffffffff1673ffffffffffffffffffffffffffffffffffffffff16815260200190815260200160002060009054906101000a900460ff16905092915050565b606060078054610fe89061265d565b80601f01602080910402602001604051908101604052809291908181526020018280546110149061265d565b80156110615780601f1061103657610100808354040283529160200191611061565b820191906000526020600020905b81548152906001019060200180831161104457829003601f168201915b5050505050905090565b6060600082510361108d576040518060200160405280600081525090506111de565b600060405180606001604052806040815260200161316b60409139905060006003600285516110bc9190612c83565b6110c69190612ce6565b60046110d29190612d17565b905060006020826110e39190612c83565b67ffffffffffffffff8111156110fc576110fb61204e565b5b6040519080825280601f01601f19166020018201604052801561112e5781602001600182028036833780820191505090505b509050818152600183018586518101602084015b8183101561119d576003830192508251603f8160121c168501518253600182019150603f81600c1c168501518253600182019150603f8160061c168501518253600182019150603f8116850151825360018201915050611142565b6003895106600181146111b757600281146111c7576111d2565b613d3d60f01b60028303526111d2565b603d60f81b60018303525b50505050508093505050505b919050565b60007f01ffc9a7000000000000000000000000000000000000000000000000000000007bffffffffffffffffffffffffffffffffffffffffffffffffffffffff1916827bffffffffffffffffffffffffffffffffffffffffffffffffffffffff1916149050919050565b60606040518060400160405280601d81526020017f646174613a6170706c69636174696f6e2f6a736f6e3b6261736536342c000000815250905090565b61129381611859565b6112d2576040517f08c379a00000000000000000000000000000000000000000000000000000000081526004016112c9906129ff565b60405180910390fd5b50565b600033905090565b816004600083815260200190815260200160002060006101000a81548173ffffffffffffffffffffffffffffffffffffffff021916908373ffffffffffffffffffffffffffffffffffffffff160217905550808273ffffffffffffffffffffffffffffffffffffffff16611350836108c6565b73ffffffffffffffffffffffffffffffffffffffff167f8c5be1e5ebec7d5bd14f71427d1e84f3dd0314c0f7b2291e5b200ac8c7c3b92560405160405180910390a45050565b6000806113a2836108c6565b90508073ffffffffffffffffffffffffffffffffffffffff168473ffffffffffffffffffffffffffffffffffffffff1614806113e457506113e38185610f45565b5b8061142257508373ffffffffffffffffffffffffffffffffffffffff1661140a84610634565b73ffffffffffffffffffffffffffffffffffffffff16145b91505092915050565b8273ffffffffffffffffffffffffffffffffffffffff1661144b826108c6565b73ffffffffffffffffffffffffffffffffffffffff16146114a1576040517f08c379a000000000000000000000000000000000000000000000000000000000815260040161149890612dcb565b60405180910390fd5b600073ffffffffffffffffffffffffffffffffffffffff168273ffffffffffffffffffffffffffffffffffffffff1603611510576040517f08c379a000000000000000000000000000000000000000000000000000000000815260040161150790612e5d565b60405180910390fd5b61151b8383836118e3565b6115266000826112dd565b6001600360008573ffffffffffffffffffffffffffffffffffffffff1673ffffffffffffffffffffffffffffffffffffffff16815260200190815260200160002060008282546115769190612e7d565b925050819055506001600360008473ffffffffffffffffffffffffffffffffffffffff1673ffffffffffffffffffffffffffffffffffffffff16815260200190815260200160002060008282546115cd9190612c83565b92505081905550816002600083815260200190815260200160002060006101000a81548173ffffffffffffffffffffffffffffffffffffffff021916908373ffffffffffffffffffffffffffffffffffffffff160217905550808273ffffffffffffffffffffffffffffffffffffffff168473ffffffffffffffffffffffffffffffffffffffff167fddf252ad1be2c89b69c2b068fc378daa952ba7f163c4a11628f55a4df523b3ef60405160405180910390a461168c8383836118e8565b505050565b8173ffffffffffffffffffffffffffffffffffffffff168373ffffffffffffffffffffffffffffffffffffffff16036116ff576040517f08c379a00000000000000000000000000000000000000000000000000000000081526004016116f690612efd565b60405180910390fd5b80600560008573ffffffffffffffffffffffffffffffffffffffff1673ffffffffffffffffffffffffffffffffffffffff16815260200190815260200160002060008473ffffffffffffffffffffffffffffffffffffffff1673ffffffffffffffffffffffffffffffffffffffff16815260200190815260200160002060006101000a81548160ff0219169083151502179055508173ffffffffffffffffffffffffffffffffffffffff168373ffffffffffffffffffffffffffffffffffffffff167f17307eab39ab6107e8899845ad3d59bd9653f200f220920489ca2b5937696c31836040516117f09190611d7f565b60405180910390a3505050565b61180884848461142b565b611814848484846118ed565b611853576040517f08c379a000000000000000000000000000000000000000000000000000000000815260040161184a90612f8f565b60405180910390fd5b50505050565b60008073ffffffffffffffffffffffffffffffffffffffff166002600084815260200190815260200160002060009054906101000a900473ffffffffffffffffffffffffffffffffffffffff1673ffffffffffffffffffffffffffffffffffffffff1614159050919050565b6118df828260405180602001604052806000815250611a74565b5050565b505050565b505050565b600061190e8473ffffffffffffffffffffffffffffffffffffffff16611acf565b15611a67578373ffffffffffffffffffffffffffffffffffffffff1663150b7a026119376112d5565b8786866040518563ffffffff1660e01b81526004016119599493929190613004565b6020604051808303816000875af192505050801561199557506040513d601f19601f820116820180604052508101906119929190613065565b60015b611a17573d80600081146119c5576040519150601f19603f3d011682016040523d82523d6000602084013e6119ca565b606091505b506000815103611a0f576040517f08c379a0000000000000000000000000000000000000000000000000000000008152600401611a0690612f8f565b60405180910390fd5b805181602001fd5b63150b7a0260e01b7bffffffffffffffffffffffffffffffffffffffffffffffffffffffff1916817bffffffffffffffffffffffffffffffffffffffffffffffffffffffff191614915050611a6c565b600190505b949350505050565b611a7e8383611af2565b611a8b60008484846118ed565b611aca576040517f08c379a0000000000000000000000000000000000000000000000000000000008152600401611ac190612f8f565b60405180910390fd5b505050565b6000808273ffffffffffffffffffffffffffffffffffffffff163b119050919050565b600073ffffffffffffffffffffffffffffffffffffffff168273ffffffffffffffffffffffffffffffffffffffff1603611b61576040517f08c379a0000000000000000000000000000000000000000000000000000000008152600401611b58906130de565b60405180910390fd5b611b6a81611859565b15611baa576040517f08c379a0000000000000000000000000000000000000000000000000000000008152600401611ba19061314a565b60405180910390fd5b611bb6600083836118e3565b6001600360008473ffffffffffffffffffffffffffffffffffffffff1673ffffffffffffffffffffffffffffffffffffffff1681526020019081526020016000206000828254611c069190612c83565b92505081905550816002600083815260200190815260200160002060006101000a81548173ffffffffffffffffffffffffffffffffffffffff021916908373ffffffffffffffffffffffffffffffffffffffff160217905550808273ffffffffffffffffffffffffffffffffffffffff16600073ffffffffffffffffffffffffffffffffffffffff167fddf252ad1be2c89b69c2b068fc378daa952ba7f163c4a11628f55a4df523b3ef60405160405180910390a4611cc7600083836118e8565b5050565b6000604051905090565b600080fd5b600080fd5b60007fffffffff0000000000000000000000000000000000000000000000000000000082169050919050565b611d1481611cdf565b8114611d1f57600080fd5b50565b600081359050611d3181611d0b565b92915050565b600060208284031215611d4d57611d4c611cd5565b5b6000611d5b84828501611d22565b91505092915050565b60008115159050919050565b611d7981611d64565b82525050565b6000602082019050611d946000830184611d70565b92915050565b600081519050919050565b600082825260208201905092915050565b60005b83811015611dd4578082015181840152602081019050611db9565b60008484015250505050565b6000601f19601f8301169050919050565b6000611dfc82611d9a565b611e068185611da5565b9350611e16818560208601611db6565b611e1f81611de0565b840191505092915050565b60006020820190508181036000830152611e448184611df1565b905092915050565b6000819050919050565b611e5f81611e4c565b8114611e6a57600080fd5b50565b600081359050611e7c81611e56565b92915050565b600060208284031215611e9857611e97611cd5565b5b6000611ea684828501611e6d565b91505092915050565b600073ffffffffffffffffffffffffffffffffffffffff82169050919050565b6000611eda82611eaf565b9050919050565b611eea81611ecf565b82525050565b6000602082019050611f056000830184611ee1565b92915050565b611f1481611ecf565b8114611f1f57600080fd5b50565b600081359050611f3181611f0b565b92915050565b60008060408385031215611f4e57611f4d611cd5565b5b6000611f5c85828601611f22565b9250506020611f6d85828601611e6d565b9150509250929050565b6000819050919050565b6000611f9c611f97611f9284611eaf565b611f77565b611eaf565b9050919050565b6000611fae82611f81565b9050919050565b6000611fc082611fa3565b9050919050565b611fd081611fb5565b82525050565b6000602082019050611feb6000830184611fc7565b92915050565b60008060006060848603121561200a57612009611cd5565b5b600061201886828701611f22565b935050602061202986828701611f22565b925050604061203a86828701611e6d565b9150509250925092565b600080fd5b600080fd5b7f4e487b7100000000000000000000000000000000000000000000000000000000600052604160045260246000fd5b61208682611de0565b810181811067ffffffffffffffff821117156120a5576120a461204e565b5b80604052505050565b60006120b8611ccb565b90506120c4828261207d565b919050565b600067ffffffffffffffff8211156120e4576120e361204e565b5b6120ed82611de0565b9050602081019050919050565b82818337600083830152505050565b600061211c612117846120c9565b6120ae565b90508281526020810184848401111561213857612137612049565b5b6121438482856120fa565b509392505050565b600082601f8301126121605761215f612044565b5b8135612170848260208601612109565b91505092915050565b60006020828403121561218f5761218e611cd5565b5b600082013567ffffffffffffffff8111156121ad576121ac611cda565b5b6121b98482850161214b565b91505092915050565b6121cb81611e4c565b82525050565b60006020820190506121e660008301846121c2565b92915050565b60006020828403121561220257612201611cd5565b5b600061221084828501611f22565b91505092915050565b61222281611d64565b811461222d57600080fd5b50565b60008135905061223f81612219565b92915050565b6000806040838503121561225c5761225b611cd5565b5b600061226a85828601611f22565b925050602061227b85828601612230565b9150509250929050565b600067ffffffffffffffff8211156122a05761229f61204e565b5b6122a982611de0565b9050602081019050919050565b60006122c96122c484612285565b6120ae565b9050828152602081018484840111156122e5576122e4612049565b5b6122f08482856120fa565b509392505050565b600082601f83011261230d5761230c612044565b5b813561231d8482602086016122b6565b91505092915050565b600080600080608085870312156123405761233f611cd5565b5b600061234e87828801611f22565b945050602061235f87828801611f22565b935050604061237087828801611e6d565b925050606085013567ffffffffffffffff81111561239157612390611cda565b5b61239d878288016122f8565b91505092959194509250565b6000819050919050565b6123bc816123a9565b81146123c757600080fd5b50565b6000813590506123d9816123b3565b92915050565b6000602082840312156123f5576123f4611cd5565b5b6000612403848285016123ca565b91505092915050565b612415816123a9565b82525050565b6000602082019050612430600083018461240c565b92915050565b6000806040838503121561244d5761244c611cd5565b5b600061245b85828601611f22565b925050602061246c85828601611f22565b9150509250929050565b600081905092915050565b7f7b226e616d65223a220000000000000000000000000000000000000000000000600082015250565b60006124b7600983612476565b91506124c282612481565b600982019050919050565b60006124d882611d9a565b6124e28185612476565b93506124f2818560208601611db6565b80840191505092915050565b7f222c202264657363697074696f6e223a2022416e204e4654207468617420636860008201527f616e676573206261736564206f6e2074686520636861696e6c696e6b2066656560208201527f64222c0000000000000000000000000000000000000000000000000000000000604082015250565b6000612580604383612476565b915061258b826124fe565b604382019050919050565b7f2261747472696275746573223a205b7b2274726169745f74797065223a20226360008201527f6f6f6c6e657373222c202276616c7565223a203130307d5d2c2022696d61676560208201527f223a220000000000000000000000000000000000000000000000000000000000604082015250565b6000612618604383612476565b915061262382612596565b604382019050919050565b7f4e487b7100000000000000000000000000000000000000000000000000000000600052602260045260246000fd5b6000600282049050600182168061267557607f821691505b6020821081036126885761268761262e565b5b50919050565b60008190508160005260206000209050919050565b600081546126b08161265d565b6126ba8186612476565b945060018216600081146126d557600181146126ea5761271d565b60ff198316865281151582028601935061271d565b6126f38561268e565b60005b83811015612715578154818901526001820191506020810190506126f6565b838801955050505b50505092915050565b7f227d000000000000000000000000000000000000000000000000000000000000600082015250565b600061275c600283612476565b915061276782612726565b600282019050919050565b600061277d826124aa565b915061278982856124cd565b915061279482612573565b915061279f8261260b565b91506127ab82846126a3565b91506127b68261274f565b91508190509392505050565b60006127ce82856124cd565b91506127da82846124cd565b91508190509392505050565b7f4552433732313a20617070726f76616c20746f2063757272656e74206f776e6560008201527f7200000000000000000000000000000000000000000000000000000000000000602082015250565b6000612842602183611da5565b915061284d826127e6565b604082019050919050565b6000602082019050818103600083015261287181612835565b9050919050565b7f4552433732313a20617070726f76652063616c6c6572206973206e6f7420746f60008201527f6b656e206f776e6572206e6f7220617070726f76656420666f7220616c6c0000602082015250565b60006128d4603e83611da5565b91506128df82612878565b604082019050919050565b60006020820190508181036000830152612903816128c7565b9050919050565b7f4552433732313a2063616c6c6572206973206e6f7420746f6b656e206f776e6560008201527f72206e6f7220617070726f766564000000000000000000000000000000000000602082015250565b6000612966602e83611da5565b91506129718261290a565b604082019050919050565b6000602082019050818103600083015261299581612959565b9050919050565b60006129a882846124cd565b915081905092915050565b7f4552433732313a20696e76616c696420746f6b656e2049440000000000000000600082015250565b60006129e9601883611da5565b91506129f4826129b3565b602082019050919050565b60006020820190508181036000830152612a18816129dc565b9050919050565b7f4552433732313a2061646472657373207a65726f206973206e6f74206120766160008201527f6c6964206f776e65720000000000000000000000000000000000000000000000602082015250565b6000612a7b602983611da5565b9150612a8682612a1f565b604082019050919050565b60006020820190508181036000830152612aaa81612a6e565b9050919050565b7f55524920517565727920666f72206e6f6e6578697374656e7420746f6b656e00600082015250565b6000612ae7601f83611da5565b9150612af282612ab1565b602082019050919050565b60006020820190508181036000830152612b1681612ada565b9050919050565b600069ffffffffffffffffffff82169050919050565b612b3c81612b1d565b8114612b4757600080fd5b50565b600081519050612b5981612b33565b92915050565b600081519050612b6e816123b3565b92915050565b600081519050612b8381611e56565b92915050565b600080600080600060a08688031215612ba557612ba4611cd5565b5b6000612bb388828901612b4a565b9550506020612bc488828901612b5f565b9450506040612bd588828901612b74565b9350506060612be688828901612b74565b9250506080612bf788828901612b4a565b9150509295509295909350565b6000612c0f826124aa565b9150612c1b82856124cd565b9150612c2682612573565b9150612c318261260b565b9150612c3d82846124cd565b9150612c488261274f565b91508190509392505050565b7f4e487b7100000000000000000000000000000000000000000000000000000000600052601160045260246000fd5b6000612c8e82611e4c565b9150612c9983611e4c565b9250828201905080821115612cb157612cb0612c54565b5b92915050565b7f4e487b7100000000000000000000000000000000000000000000000000000000600052601260045260246000fd5b6000612cf182611e4c565b9150612cfc83611e4c565b925082612d0c57612d0b612cb7565b5b828204905092915050565b6000612d2282611e4c565b9150612d2d83611e4c565b9250828202612d3b81611e4c565b91508282048414831517612d5257612d51612c54565b5b5092915050565b7f4552433732313a207472616e736665722066726f6d20696e636f72726563742060008201527f6f776e6572000000000000000000000000000000000000000000000000000000602082015250565b6000612db5602583611da5565b9150612dc082612d59565b604082019050919050565b60006020820190508181036000830152612de481612da8565b9050919050565b7f4552433732313a207472616e7366657220746f20746865207a65726f2061646460008201527f7265737300000000000000000000000000000000000000000000000000000000602082015250565b6000612e47602483611da5565b9150612e5282612deb565b604082019050919050565b60006020820190508181036000830152612e7681612e3a565b9050919050565b6000612e8882611e4c565b9150612e9383611e4c565b9250828203905081811115612eab57612eaa612c54565b5b92915050565b7f4552433732313a20617070726f766520746f2063616c6c657200000000000000600082015250565b6000612ee7601983611da5565b9150612ef282612eb1565b602082019050919050565b60006020820190508181036000830152612f1681612eda565b9050919050565b7f4552433732313a207472616e7366657220746f206e6f6e20455243373231526560008201527f63656976657220696d706c656d656e7465720000000000000000000000000000602082015250565b6000612f79603283611da5565b9150612f8482612f1d565b604082019050919050565b60006020820190508181036000830152612fa881612f6c565b9050919050565b600081519050919050565b600082825260208201905092915050565b6000612fd682612faf565b612fe08185612fba565b9350612ff0818560208601611db6565b612ff981611de0565b840191505092915050565b60006080820190506130196000830187611ee1565b6130266020830186611ee1565b61303360408301856121c2565b81810360608301526130458184612fcb565b905095945050505050565b60008151905061305f81611d0b565b92915050565b60006020828403121561307b5761307a611cd5565b5b600061308984828501613050565b91505092915050565b7f4552433732313a206d696e7420746f20746865207a65726f2061646472657373600082015250565b60006130c8602083611da5565b91506130d382613092565b602082019050919050565b600060208201905081810360008301526130f7816130bb565b9050919050565b7f4552433732313a20746f6b656e20616c7265616479206d696e74656400000000600082015250565b6000613134601c83611da5565b915061313f826130fe565b602082019050919050565b6000602082019050818103600083015261316381613127565b905091905056fe4142434445464748494a4b4c4d4e4f505152535455565758595a6162636465666768696a6b6c6d6e6f707172737475767778797a303132333435363738392b2fa26469706673582212206b2c39a26713c17c03a6047382deb12e23fc80088dd3c069461f54fe5b6fa64464736f6c634300081100334142434445464748494a4b4c4d4e4f505152535455565758595a6162636465666768696a6b6c6d6e6f707172737475767778797a303132333435363738392b2f",
  "devdoc": {
    "kind": "dev",
    "methods": {
      "approve(address,uint256)": {
        "details": "See {IERC721-approve}."
      },
      "balanceOf(address)": {
        "details": "See {IERC721-balanceOf}."
      },
      "getApproved(uint256)": {
        "details": "See {IERC721-getApproved}."
      },
      "isApprovedForAll(address,address)": {
        "details": "See {IERC721-isApprovedForAll}."
      },
      "name()": {
        "details": "See {IERC721Metadata-name}."
      },
      "ownerOf(uint256)": {
        "details": "See {IERC721-ownerOf}."
      },
      "safeTransferFrom(address,address,uint256)": {
        "details": "See {IERC721-safeTransferFrom}."
      },
      "safeTransferFrom(address,address,uint256,bytes)": {
        "details": "See {IERC721-safeTransferFrom}."
      },
      "setApprovalForAll(address,bool)": {
        "details": "See {IERC721-setApprovalForAll}."
      },
      "supportsInterface(bytes4)": {
        "details": "See {IERC165-supportsInterface}."
      },
      "symbol()": {
        "details": "See {IERC721Metadata-symbol}."
      },
      "tokenURI(uint256)": {
        "details": "See {IERC721Metadata-tokenURI}."
      },
      "transferFrom(address,address,uint256)": {
        "details": "See {IERC721-transferFrom}."
      }
    },
    "version": 1
  },
  "userdoc": {
    "kind": "user",
    "methods": {},
    "version": 1
  },
  "storageLayout": {
    "storage": [
      {
        "astId": 1296,
        "contract": "contracts/DynamicSVGNFT.sol:DynamicSVGNFT",
        "label": "_name",
        "offset": 0,
        "slot": "0",
        "type": "t_string_storage"
      },
      {
        "astId": 1298,
        "contract": "contracts/DynamicSVGNFT.sol:DynamicSVGNFT",
        "label": "_symbol",
        "offset": 0,
        "slot": "1",
        "type": "t_string_storage"
      },
      {
        "astId": 1302,
        "contract": "contracts/DynamicSVGNFT.sol:DynamicSVGNFT",
        "label": "_owners",
        "offset": 0,
        "slot": "2",
        "type": "t_mapping(t_uint256,t_address)"
      },
      {
        "astId": 1306,
        "contract": "contracts/DynamicSVGNFT.sol:DynamicSVGNFT",
        "label": "_balances",
        "offset": 0,
        "slot": "3",
        "type": "t_mapping(t_address,t_uint256)"
      },
      {
        "astId": 1310,
        "contract": "contracts/DynamicSVGNFT.sol:DynamicSVGNFT",
        "label": "_tokenApprovals",
        "offset": 0,
        "slot": "4",
        "type": "t_mapping(t_uint256,t_address)"
      },
      {
        "astId": 1316,
        "contract": "contracts/DynamicSVGNFT.sol:DynamicSVGNFT",
        "label": "_operatorApprovals",
        "offset": 0,
        "slot": "5",
        "type": "t_mapping(t_address,t_mapping(t_address,t_bool))"
      },
      {
        "astId": 3186,
        "contract": "contracts/DynamicSVGNFT.sol:DynamicSVGNFT",
        "label": "s_tokenCounter",
        "offset": 0,
        "slot": "6",
        "type": "t_uint256"
      },
      {
        "astId": 3188,
        "contract": "contracts/DynamicSVGNFT.sol:DynamicSVGNFT",
        "label": "i_lowImageSVG",
        "offset": 0,
        "slot": "7",
        "type": "t_string_storage"
      },
      {
        "astId": 3190,
        "contract": "contracts/DynamicSVGNFT.sol:DynamicSVGNFT",
        "label": "i_highImageSVG",
        "offset": 0,
        "slot": "8",
        "type": "t_string_storage"
      },
      {
        "astId": 3203,
        "contract": "contracts/DynamicSVGNFT.sol:DynamicSVGNFT",
        "label": "s_tokenIdToHighValue",
        "offset": 0,
        "slot": "9",
        "type": "t_mapping(t_uint256,t_int256)"
      }
    ],
    "types": {
      "t_address": {
        "encoding": "inplace",
        "label": "address",
        "numberOfBytes": "20"
      },
      "t_bool": {
        "encoding": "inplace",
        "label": "bool",
        "numberOfBytes": "1"
      },
      "t_int256": {
        "encoding": "inplace",
        "label": "int256",
        "numberOfBytes": "32"
      },
      "t_mapping(t_address,t_bool)": {
        "encoding": "mapping",
        "key": "t_address",
        "label": "mapping(address => bool)",
        "numberOfBytes": "32",
        "value": "t_bool"
      },
      "t_mapping(t_address,t_mapping(t_address,t_bool))": {
        "encoding": "mapping",
        "key": "t_address",
        "label": "mapping(address => mapping(address => bool))",
        "numberOfBytes": "32",
        "value": "t_mapping(t_address,t_bool)"
      },
      "t_mapping(t_address,t_uint256)": {
        "encoding": "mapping",
        "key": "t_address",
        "label": "mapping(address => uint256)",
        "numberOfBytes": "32",
        "value": "t_uint256"
      },
      "t_mapping(t_uint256,t_address)": {
        "encoding": "mapping",
        "key": "t_uint256",
        "label": "mapping(uint256 => address)",
        "numberOfBytes": "32",
        "value": "t_address"
      },
      "t_mapping(t_uint256,t_int256)": {
        "encoding": "mapping",
        "key": "t_uint256",
        "label": "mapping(uint256 => int256)",
        "numberOfBytes": "32",
        "value": "t_int256"
      },
      "t_string_storage": {
        "encoding": "bytes",
        "label": "string",
        "numberOfBytes": "32"
      },
      "t_uint256": {
        "encoding": "inplace",
        "label": "uint256",
        "numberOfBytes": "32"
      }
    }
  }
}