{
  "_format": "hh-sol-artifact-1",
  "contractName": "DynamicSVGNFT",
  "sourceName": "contracts/DynamicSVGNFT.sol",
  "abi": [
    {
      "inputs": [
        {
          "internalType": "address",
          "name": "priceFeedAddress",
          "type": "address"
        },
        {
          "internalType": "string",
          "name": "lowSVG",
          "type": "string"
        },
        {
          "internalType": "string",
          "name": "highSVG",
          "type": "string"
        }
      ],
      "stateMutability": "nonpayable",
      "type": "constructor"
    },
    {
      "inputs": [],
      "name": "DynamicSVGNFT__TokenId_Cannot_be_Zero",
      "type": "error"
    },
    {
      "inputs": [],
      "name": "ERC721Metadata__URI_QueryFor_NonExistentToken",
      "type": "error"
    },
    {
      "anonymous": false,
      "inputs": [
        {
          "indexed": true,
          "internalType": "address",
          "name": "owner",
          "type": "address"
        },
        {
          "indexed": true,
          "internalType": "address",
          "name": "approved",
          "type": "address"
        },
        {
          "indexed": true,
          "internalType": "uint256",
          "name": "tokenId",
          "type": "uint256"
        }
      ],
      "name": "Approval",
      "type": "event"
    },
    {
      "anonymous": false,
      "inputs": [
        {
          "indexed": true,
          "internalType": "address",
          "name": "owner",
          "type": "address"
        },
        {
          "indexed": true,
          "internalType": "address",
          "name": "operator",
          "type": "address"
        },
        {
          "indexed": false,
          "internalType": "bool",
          "name": "approved",
          "type": "bool"
        }
      ],
      "name": "ApprovalForAll",
      "type": "event"
    },
    {
      "anonymous": false,
      "inputs": [
        {
          "indexed": true,
          "internalType": "uint256",
          "name": "tokenId",
          "type": "uint256"
        },
        {
          "indexed": false,
          "internalType": "int256",
          "name": "highValue",
          "type": "int256"
        }
      ],
      "name": "CreatedNFT",
      "type": "event"
    },
    {
      "anonymous": false,
      "inputs": [
        {
          "indexed": true,
          "internalType": "address",
          "name": "from",
          "type": "address"
        },
        {
          "indexed": true,
          "internalType": "address",
          "name": "to",
          "type": "address"
        },
        {
          "indexed": true,
          "internalType": "uint256",
          "name": "tokenId",
          "type": "uint256"
        }
      ],
      "name": "Transfer",
      "type": "event"
    },
    {
      "inputs": [
        {
          "internalType": "address",
          "name": "to",
          "type": "address"
        },
        {
          "internalType": "uint256",
          "name": "tokenId",
          "type": "uint256"
        }
      ],
      "name": "approve",
      "outputs": [],
      "stateMutability": "nonpayable",
      "type": "function"
    },
    {
      "inputs": [
        {
          "internalType": "address",
          "name": "owner",
          "type": "address"
        }
      ],
      "name": "balanceOf",
      "outputs": [
        {
          "internalType": "uint256",
          "name": "",
          "type": "uint256"
        }
      ],
      "stateMutability": "view",
      "type": "function"
    },
    {
      "inputs": [
        {
          "internalType": "uint256",
          "name": "tokenId",
          "type": "uint256"
        }
      ],
      "name": "getApproved",
      "outputs": [
        {
          "internalType": "address",
          "name": "",
          "type": "address"
        }
      ],
      "stateMutability": "view",
      "type": "function"
    },
    {
      "inputs": [],
      "name": "getHighSVG",
      "outputs": [
        {
          "internalType": "string",
          "name": "",
          "type": "string"
        }
      ],
      "stateMutability": "view",
      "type": "function"
    },
    {
      "inputs": [],
      "name": "getLowSVG",
      "outputs": [
        {
          "internalType": "string",
          "name": "",
          "type": "string"
        }
      ],
      "stateMutability": "view",
      "type": "function"
    },
    {
      "inputs": [],
      "name": "getPackedEncodedHighSVGURI",
      "outputs": [
        {
          "internalType": "string",
          "name": "",
          "type": "string"
        }
      ],
      "stateMutability": "view",
      "type": "function"
    },
    {
      "inputs": [],
      "name": "getPackedEncodedLowSVGURI",
      "outputs": [
        {
          "internalType": "string",
          "name": "",
          "type": "string"
        }
      ],
      "stateMutability": "view",
      "type": "function"
    },
    {
      "inputs": [],
      "name": "getPriceFeedAddress",
      "outputs": [
        {
          "internalType": "contract AggregatorV3Interface",
          "name": "",
          "type": "address"
        }
      ],
      "stateMutability": "view",
      "type": "function"
    },
    {
      "inputs": [],
      "name": "getTokenCounter",
      "outputs": [
        {
          "internalType": "uint256",
          "name": "",
          "type": "uint256"
        }
      ],
      "stateMutability": "view",
      "type": "function"
    },
    {
      "inputs": [
        {
          "internalType": "address",
          "name": "owner",
          "type": "address"
        },
        {
          "internalType": "address",
          "name": "operator",
          "type": "address"
        }
      ],
      "name": "isApprovedForAll",
      "outputs": [
        {
          "internalType": "bool",
          "name": "",
          "type": "bool"
        }
      ],
      "stateMutability": "view",
      "type": "function"
    },
    {
      "inputs": [
        {
          "internalType": "int256",
          "name": "highValue",
          "type": "int256"
        }
      ],
      "name": "mintNFT",
      "outputs": [],
      "stateMutability": "nonpayable",
      "type": "function"
    },
    {
      "inputs": [],
      "name": "name",
      "outputs": [
        {
          "internalType": "string",
          "name": "",
          "type": "string"
        }
      ],
      "stateMutability": "view",
      "type": "function"
    },
    {
      "inputs": [
        {
          "internalType": "uint256",
          "name": "tokenId",
          "type": "uint256"
        }
      ],
      "name": "ownerOf",
      "outputs": [
        {
          "internalType": "address",
          "name": "",
          "type": "address"
        }
      ],
      "stateMutability": "view",
      "type": "function"
    },
    {
      "inputs": [
        {
          "internalType": "uint256",
          "name": "",
          "type": "uint256"
        }
      ],
      "name": "s_tokenIdToHighValue",
      "outputs": [
        {
          "internalType": "int256",
          "name": "",
          "type": "int256"
        }
      ],
      "stateMutability": "view",
      "type": "function"
    },
    {
      "inputs": [
        {
          "internalType": "address",
          "name": "from",
          "type": "address"
        },
        {
          "internalType": "address",
          "name": "to",
          "type": "address"
        },
        {
          "internalType": "uint256",
          "name": "tokenId",
          "type": "uint256"
        }
      ],
      "name": "safeTransferFrom",
      "outputs": [],
      "stateMutability": "nonpayable",
      "type": "function"
    },
    {
      "inputs": [
        {
          "internalType": "address",
          "name": "from",
          "type": "address"
        },
        {
          "internalType": "address",
          "name": "to",
          "type": "address"
        },
        {
          "internalType": "uint256",
          "name": "tokenId",
          "type": "uint256"
        },
        {
          "internalType": "bytes",
          "name": "data",
          "type": "bytes"
        }
      ],
      "name": "safeTransferFrom",
      "outputs": [],
      "stateMutability": "nonpayable",
      "type": "function"
    },
    {
      "inputs": [
        {
          "internalType": "address",
          "name": "operator",
          "type": "address"
        },
        {
          "internalType": "bool",
          "name": "approved",
          "type": "bool"
        }
      ],
      "name": "setApprovalForAll",
      "outputs": [],
      "stateMutability": "nonpayable",
      "type": "function"
    },
    {
      "inputs": [
        {
          "internalType": "bytes4",
          "name": "interfaceId",
          "type": "bytes4"
        }
      ],
      "name": "supportsInterface",
      "outputs": [
        {
          "internalType": "bool",
          "name": "",
          "type": "bool"
        }
      ],
      "stateMutability": "view",
      "type": "function"
    },
    {
      "inputs": [
        {
          "internalType": "string",
          "name": "svg",
          "type": "string"
        }
      ],
      "name": "svgToImageURI",
      "outputs": [
        {
          "internalType": "string",
          "name": "",
          "type": "string"
        }
      ],
      "stateMutability": "pure",
      "type": "function"
    },
    {
      "inputs": [],
      "name": "symbol",
      "outputs": [
        {
          "internalType": "string",
          "name": "",
          "type": "string"
        }
      ],
      "stateMutability": "view",
      "type": "function"
    },
    {
      "inputs": [
        {
          "internalType": "uint256",
          "name": "tokenId",
          "type": "uint256"
        }
      ],
      "name": "tokenURI",
      "outputs": [
        {
          "internalType": "string",
          "name": "",
          "type": "string"
        }
      ],
      "stateMutability": "view",
      "type": "function"
    },
    {
      "inputs": [
        {
          "internalType": "address",
          "name": "from",
          "type": "address"
        },
        {
          "internalType": "address",
          "name": "to",
          "type": "address"
        },
        {
          "internalType": "uint256",
          "name": "tokenId",
          "type": "uint256"
        }
      ],
      "name": "transferFrom",
      "outputs": [],
      "stateMutability": "nonpayable",
      "type": "function"
    }
  ],
  "bytecode": "0x60a06040523480156200001157600080fd5b5060405162003cdf38038062003cdf83398181016040528101906200003791906200056d565b6040518060400160405280600f81526020017f44796e616d696320535647204e465400000000000000000000000000000000008152506040518060400160405280600381526020017f44534e00000000000000000000000000000000000000000000000000000000008152508160009081620000b4919062000852565b508060019081620000c6919062000852565b505050620000da826200014a60201b60201c565b60079081620000ea919062000852565b50620000fc816200014a60201b60201c565b600890816200010c919062000852565b508273ffffffffffffffffffffffffffffffffffffffff1660808173ffffffffffffffffffffffffffffffffffffffff168152505050505062000ad8565b6060600062000185836040516020016200016591906200097b565b604051602081830303815290604052620001e860201b6200109b1760201c565b90506040518060400160405280601a81526020017f646174613a696d6167652f7376672b786d6c3b6261736536342c00000000000081525081604051602001620001d192919062000994565b604051602081830303815290604052915050919050565b606060008251036200020c5760405180602001604052806000815250905062000370565b600060405180606001604052806040815260200162003c9f60409139905060006003600285516200023e9190620009eb565b6200024a919062000a55565b600462000258919062000a8d565b905060006020826200026b9190620009eb565b67ffffffffffffffff81111562000287576200028662000409565b5b6040519080825280601f01601f191660200182016040528015620002ba5781602001600182028036833780820191505090505b509050818152600183018586518101602084015b818310156200032b576003830192508251603f8160121c168501518253600182019150603f81600c1c168501518253600182019150603f8160061c168501518253600182019150603f8116850151825360018201915050620002ce565b600389510660018114620003485760028114620003595762000364565b613d3d60f01b600283035262000364565b603d60f81b60018303525b50505050508093505050505b919050565b6000604051905090565b600080fd5b600080fd5b600073ffffffffffffffffffffffffffffffffffffffff82169050919050565b6000620003b68262000389565b9050919050565b620003c881620003a9565b8114620003d457600080fd5b50565b600081519050620003e881620003bd565b92915050565b600080fd5b600080fd5b6000601f19601f8301169050919050565b7f4e487b7100000000000000000000000000000000000000000000000000000000600052604160045260246000fd5b6200044382620003f8565b810181811067ffffffffffffffff8211171562000465576200046462000409565b5b80604052505050565b60006200047a62000375565b905062000488828262000438565b919050565b600067ffffffffffffffff821115620004ab57620004aa62000409565b5b620004b682620003f8565b9050602081019050919050565b60005b83811015620004e3578082015181840152602081019050620004c6565b60008484015250505050565b60006200050662000500846200048d565b6200046e565b905082815260208101848484011115620005255762000524620003f3565b5b62000532848285620004c3565b509392505050565b600082601f830112620005525762000551620003ee565b5b815162000564848260208601620004ef565b91505092915050565b6000806000606084860312156200058957620005886200037f565b5b60006200059986828701620003d7565b935050602084015167ffffffffffffffff811115620005bd57620005bc62000384565b5b620005cb868287016200053a565b925050604084015167ffffffffffffffff811115620005ef57620005ee62000384565b5b620005fd868287016200053a565b9150509250925092565b600081519050919050565b7f4e487b7100000000000000000000000000000000000000000000000000000000600052602260045260246000fd5b600060028204905060018216806200065a57607f821691505b60208210810362000670576200066f62000612565b5b50919050565b60008190508160005260206000209050919050565b60006020601f8301049050919050565b600082821b905092915050565b600060088302620006da7fffffffffffffffffffffffffffffffffffffffffffffffffffffffffffffffff826200069b565b620006e686836200069b565b95508019841693508086168417925050509392505050565b6000819050919050565b6000819050919050565b6000620007336200072d6200072784620006fe565b62000708565b620006fe565b9050919050565b6000819050919050565b6200074f8362000712565b620007676200075e826200073a565b848454620006a8565b825550505050565b600090565b6200077e6200076f565b6200078b81848462000744565b505050565b5b81811015620007b357620007a760008262000774565b60018101905062000791565b5050565b601f8211156200080257620007cc8162000676565b620007d7846200068b565b81016020851015620007e7578190505b620007ff620007f6856200068b565b83018262000790565b50505b505050565b600082821c905092915050565b6000620008276000198460080262000807565b1980831691505092915050565b600062000842838362000814565b9150826002028217905092915050565b6200085d8262000607565b67ffffffffffffffff81111562000879576200087862000409565b5b62000885825462000641565b62000892828285620007b7565b600060209050601f831160018114620008ca5760008415620008b5578287015190505b620008c1858262000834565b86555062000931565b601f198416620008da8662000676565b60005b828110156200090457848901518255600182019150602085019450602081019050620008dd565b8683101562000924578489015162000920601f89168262000814565b8355505b6001600288020188555050505b505050505050565b600081905092915050565b6000620009518262000607565b6200095d818562000939565b93506200096f818560208601620004c3565b80840191505092915050565b600062000989828462000944565b915081905092915050565b6000620009a2828562000944565b9150620009b0828462000944565b91508190509392505050565b7f4e487b7100000000000000000000000000000000000000000000000000000000600052601160045260246000fd5b6000620009f882620006fe565b915062000a0583620006fe565b925082820190508082111562000a205762000a1f620009bc565b5b92915050565b7f4e487b7100000000000000000000000000000000000000000000000000000000600052601260045260246000fd5b600062000a6282620006fe565b915062000a6f83620006fe565b92508262000a825762000a8162000a26565b5b828204905092915050565b600062000a9a82620006fe565b915062000aa783620006fe565b925082820262000ab781620006fe565b9150828204841483151762000ad15762000ad0620009bc565b5b5092915050565b6080516131a462000afb600039600081816107950152610c5301526131a46000f3fe608060405234801561001057600080fd5b50600436106101425760003560e01c806370a08231116100b8578063c87b56dd1161007c578063c87b56dd14610377578063d358164b146103a7578063e2ed50cb146103c5578063e425aded146103e1578063e985e9c514610411578063ed28a1221461044157610142565b806370a08231146102d357806376f6056b1461030357806395d89b4114610321578063a22cb4651461033f578063b88d4fde1461035b57610142565b80630f0f30b21161010a5780630f0f30b2146101ff57806323b872dd1461021d57806330d871c61461023957806342842e0e146102695780636352211e146102855780636e02007d146102b557610142565b806301ffc9a7146101475780630359ac161461017757806306fdde0314610195578063081812fc146101b3578063095ea7b3146101e3575b600080fd5b610161600480360381019061015c9190611d67565b61045f565b60405161016e9190611daf565b60405180910390f35b61017f610541565b60405161018c9190611e5a565b60405180910390f35b61019d6105a2565b6040516101aa9190611e5a565b60405180910390f35b6101cd60048036038101906101c89190611eb2565b610634565b6040516101da9190611f20565b60405180910390f35b6101fd60048036038101906101f89190611f67565b61067a565b005b610207610791565b6040516102149190612006565b60405180910390f35b61023760048036038101906102329190612021565b6107b9565b005b610253600480360381019061024e91906121a9565b610819565b6040516102609190611e5a565b60405180910390f35b610283600480360381019061027e9190612021565b6108a6565b005b61029f600480360381019061029a9190611eb2565b6108c6565b6040516102ac9190611f20565b60405180910390f35b6102bd610977565b6040516102ca9190612201565b60405180910390f35b6102ed60048036038101906102e8919061221c565b610981565b6040516102fa9190612201565b60405180910390f35b61030b610a38565b6040516103189190611e5a565b60405180910390f35b610329610aca565b6040516103369190611e5a565b60405180910390f35b61035960048036038101906103549190612275565b610b5c565b005b61037560048036038101906103709190612356565b610b72565b005b610391600480360381019061038c9190611eb2565b610bd4565b60405161039e9190611e5a565b60405180910390f35b6103af610e7f565b6040516103bc9190611e5a565b60405180910390f35b6103df60048036038101906103da919061240f565b610ee0565b005b6103fb60048036038101906103f69190611eb2565b610f5d565b604051610408919061244b565b60405180910390f35b61042b60048036038101906104269190612466565b610f75565b6040516104389190611daf565b60405180910390f35b610449611009565b6040516104569190611e5a565b60405180910390f35b60007f80ac58cd000000000000000000000000000000000000000000000000000000007bffffffffffffffffffffffffffffffffffffffffffffffffffffffff1916827bffffffffffffffffffffffffffffffffffffffffffffffffffffffff1916148061052a57507f5b5e139f000000000000000000000000000000000000000000000000000000007bffffffffffffffffffffffffffffffffffffffffffffffffffffffff1916827bffffffffffffffffffffffffffffffffffffffffffffffffffffffff1916145b8061053a575061053982611213565b5b9050919050565b606061054b61127d565b61057d6105566105a2565b60076040516020016105699291906127a2565b60405160208183030381529060405261109b565b60405160200161058e9291906127f2565b604051602081830303815290604052905090565b6060600080546105b19061268d565b80601f01602080910402602001604051908101604052809291908181526020018280546105dd9061268d565b801561062a5780601f106105ff5761010080835404028352916020019161062a565b820191906000526020600020905b81548152906001019060200180831161060d57829003601f168201915b5050505050905090565b600061063f826112ba565b6004600083815260200190815260200160002060009054906101000a900473ffffffffffffffffffffffffffffffffffffffff169050919050565b6000610685826108c6565b90508073ffffffffffffffffffffffffffffffffffffffff168373ffffffffffffffffffffffffffffffffffffffff16036106f5576040517f08c379a00000000000000000000000000000000000000000000000000000000081526004016106ec90612888565b60405180910390fd5b8073ffffffffffffffffffffffffffffffffffffffff16610714611305565b73ffffffffffffffffffffffffffffffffffffffff16148061074357506107428161073d611305565b610f75565b5b610782576040517f08c379a00000000000000000000000000000000000000000000000000000000081526004016107799061291a565b60405180910390fd5b61078c838361130d565b505050565b60007f0000000000000000000000000000000000000000000000000000000000000000905090565b6107ca6107c4611305565b826113c6565b610809576040517f08c379a0000000000000000000000000000000000000000000000000000000008152600401610800906129ac565b60405180910390fd5b61081483838361145b565b505050565b606060006108458360405160200161083191906129cc565b60405160208183030381529060405261109b565b90506040518060400160405280601a81526020017f646174613a696d6167652f7376672b786d6c3b6261736536342c0000000000008152508160405160200161088f9291906127f2565b604051602081830303815290604052915050919050565b6108c183838360405180602001604052806000815250610b72565b505050565b6000806002600084815260200190815260200160002060009054906101000a900473ffffffffffffffffffffffffffffffffffffffff169050600073ffffffffffffffffffffffffffffffffffffffff168173ffffffffffffffffffffffffffffffffffffffff160361096e576040517f08c379a000000000000000000000000000000000000000000000000000000000815260040161096590612a2f565b60405180910390fd5b80915050919050565b6000600654905090565b60008073ffffffffffffffffffffffffffffffffffffffff168273ffffffffffffffffffffffffffffffffffffffff16036109f1576040517f08c379a00000000000000000000000000000000000000000000000000000000081526004016109e890612ac1565b60405180910390fd5b600360008373ffffffffffffffffffffffffffffffffffffffff1673ffffffffffffffffffffffffffffffffffffffff168152602001908152602001600020549050919050565b606060088054610a479061268d565b80601f0160208091040260200160405190810160405280929190818152602001828054610a739061268d565b8015610ac05780601f10610a9557610100808354040283529160200191610ac0565b820191906000526020600020905b815481529060010190602001808311610aa357829003601f168201915b5050505050905090565b606060018054610ad99061268d565b80601f0160208091040260200160405190810160405280929190818152602001828054610b059061268d565b8015610b525780601f10610b2757610100808354040283529160200191610b52565b820191906000526020600020905b815481529060010190602001808311610b3557829003601f168201915b5050505050905090565b610b6e610b67611305565b83836116c1565b5050565b610b83610b7d611305565b836113c6565b610bc2576040517f08c379a0000000000000000000000000000000000000000000000000000000008152600401610bb9906129ac565b60405180910390fd5b610bce8484848461182d565b50505050565b606060008203610c10576040517f9cd8a1ec00000000000000000000000000000000000000000000000000000000815260040160405180910390fd5b610c1982611889565b610c4f576040517f6df5edae00000000000000000000000000000000000000000000000000000000815260040160405180910390fd5b60007f000000000000000000000000000000000000000000000000000000000000000073ffffffffffffffffffffffffffffffffffffffff1663feaf968c6040518163ffffffff1660e01b815260040160a060405180830381865afa158015610cbc573d6000803e3d6000fd5b505050506040513d601f19601f82011682018060405250810190610ce09190612b4d565b505050915050600060078054610cf59061268d565b80601f0160208091040260200160405190810160405280929190818152602001828054610d219061268d565b8015610d6e5780601f10610d4357610100808354040283529160200191610d6e565b820191906000526020600020905b815481529060010190602001808311610d5157829003601f168201915b5050505050905060096000858152602001908152602001600020548213610e1d5760088054610d9c9061268d565b80601f0160208091040260200160405190810160405280929190818152602001828054610dc89061268d565b8015610e155780601f10610dea57610100808354040283529160200191610e15565b820191906000526020600020905b815481529060010190602001808311610df857829003601f168201915b505050505090505b610e2561127d565b610e56610e306105a2565b83604051602001610e42929190612bc8565b60405160208183030381529060405261109b565b604051602001610e679291906127f2565b60405160208183030381529060405292505050919050565b6060610e8961127d565b610ebb610e946105a2565b6008604051602001610ea79291906127a2565b60405160208183030381529060405261109b565b604051602001610ecc9291906127f2565b604051602081830303815290604052905090565b600160066000828254610ef39190612c47565b925050819055508060096000600654815260200190815260200160002081905550610f20336006546118f5565b6006547f882d3b5a729a8bb95cf6c0083c99b42ecd9637123d4425bd7b768877fd8af8b082604051610f52919061244b565b60405180910390a250565b60096020528060005260406000206000915090505481565b6000600560008473ffffffffffffffffffffffffffffffffffffffff1673ffffffffffffffffffffffffffffffffffffffff16815260200190815260200160002060008373ffffffffffffffffffffffffffffffffffffffff1673ffffffffffffffffffffffffffffffffffffffff16815260200190815260200160002060009054906101000a900460ff16905092915050565b6060600780546110189061268d565b80601f01602080910402602001604051908101604052809291908181526020018280546110449061268d565b80156110915780601f1061106657610100808354040283529160200191611091565b820191906000526020600020905b81548152906001019060200180831161107457829003601f168201915b5050505050905090565b606060008251036110bd5760405180602001604052806000815250905061120e565b600060405180606001604052806040815260200161312f60409139905060006003600285516110ec9190612c47565b6110f69190612caa565b60046111029190612cdb565b905060006020826111139190612c47565b67ffffffffffffffff81111561112c5761112b61207e565b5b6040519080825280601f01601f19166020018201604052801561115e5781602001600182028036833780820191505090505b509050818152600183018586518101602084015b818310156111cd576003830192508251603f8160121c168501518253600182019150603f81600c1c168501518253600182019150603f8160061c168501518253600182019150603f8116850151825360018201915050611172565b6003895106600181146111e757600281146111f757611202565b613d3d60f01b6002830352611202565b603d60f81b60018303525b50505050508093505050505b919050565b60007f01ffc9a7000000000000000000000000000000000000000000000000000000007bffffffffffffffffffffffffffffffffffffffffffffffffffffffff1916827bffffffffffffffffffffffffffffffffffffffffffffffffffffffff1916149050919050565b60606040518060400160405280601d81526020017f646174613a6170706c69636174696f6e2f6a736f6e3b6261736536342c000000815250905090565b6112c381611889565b611302576040517f08c379a00000000000000000000000000000000000000000000000000000000081526004016112f990612a2f565b60405180910390fd5b50565b600033905090565b816004600083815260200190815260200160002060006101000a81548173ffffffffffffffffffffffffffffffffffffffff021916908373ffffffffffffffffffffffffffffffffffffffff160217905550808273ffffffffffffffffffffffffffffffffffffffff16611380836108c6565b73ffffffffffffffffffffffffffffffffffffffff167f8c5be1e5ebec7d5bd14f71427d1e84f3dd0314c0f7b2291e5b200ac8c7c3b92560405160405180910390a45050565b6000806113d2836108c6565b90508073ffffffffffffffffffffffffffffffffffffffff168473ffffffffffffffffffffffffffffffffffffffff16148061141457506114138185610f75565b5b8061145257508373ffffffffffffffffffffffffffffffffffffffff1661143a84610634565b73ffffffffffffffffffffffffffffffffffffffff16145b91505092915050565b8273ffffffffffffffffffffffffffffffffffffffff1661147b826108c6565b73ffffffffffffffffffffffffffffffffffffffff16146114d1576040517f08c379a00000000000000000000000000000000000000000000000000000000081526004016114c890612d8f565b60405180910390fd5b600073ffffffffffffffffffffffffffffffffffffffff168273ffffffffffffffffffffffffffffffffffffffff1603611540576040517f08c379a000000000000000000000000000000000000000000000000000000000815260040161153790612e21565b60405180910390fd5b61154b838383611913565b61155660008261130d565b6001600360008573ffffffffffffffffffffffffffffffffffffffff1673ffffffffffffffffffffffffffffffffffffffff16815260200190815260200160002060008282546115a69190612e41565b925050819055506001600360008473ffffffffffffffffffffffffffffffffffffffff1673ffffffffffffffffffffffffffffffffffffffff16815260200190815260200160002060008282546115fd9190612c47565b92505081905550816002600083815260200190815260200160002060006101000a81548173ffffffffffffffffffffffffffffffffffffffff021916908373ffffffffffffffffffffffffffffffffffffffff160217905550808273ffffffffffffffffffffffffffffffffffffffff168473ffffffffffffffffffffffffffffffffffffffff167fddf252ad1be2c89b69c2b068fc378daa952ba7f163c4a11628f55a4df523b3ef60405160405180910390a46116bc838383611918565b505050565b8173ffffffffffffffffffffffffffffffffffffffff168373ffffffffffffffffffffffffffffffffffffffff160361172f576040517f08c379a000000000000000000000000000000000000000000000000000000000815260040161172690612ec1565b60405180910390fd5b80600560008573ffffffffffffffffffffffffffffffffffffffff1673ffffffffffffffffffffffffffffffffffffffff16815260200190815260200160002060008473ffffffffffffffffffffffffffffffffffffffff1673ffffffffffffffffffffffffffffffffffffffff16815260200190815260200160002060006101000a81548160ff0219169083151502179055508173ffffffffffffffffffffffffffffffffffffffff168373ffffffffffffffffffffffffffffffffffffffff167f17307eab39ab6107e8899845ad3d59bd9653f200f220920489ca2b5937696c31836040516118209190611daf565b60405180910390a3505050565b61183884848461145b565b6118448484848461191d565b611883576040517f08c379a000000000000000000000000000000000000000000000000000000000815260040161187a90612f53565b60405180910390fd5b50505050565b60008073ffffffffffffffffffffffffffffffffffffffff166002600084815260200190815260200160002060009054906101000a900473ffffffffffffffffffffffffffffffffffffffff1673ffffffffffffffffffffffffffffffffffffffff1614159050919050565b61190f828260405180602001604052806000815250611aa4565b5050565b505050565b505050565b600061193e8473ffffffffffffffffffffffffffffffffffffffff16611aff565b15611a97578373ffffffffffffffffffffffffffffffffffffffff1663150b7a02611967611305565b8786866040518563ffffffff1660e01b81526004016119899493929190612fc8565b6020604051808303816000875af19250505080156119c557506040513d601f19601f820116820180604052508101906119c29190613029565b60015b611a47573d80600081146119f5576040519150601f19603f3d011682016040523d82523d6000602084013e6119fa565b606091505b506000815103611a3f576040517f08c379a0000000000000000000000000000000000000000000000000000000008152600401611a3690612f53565b60405180910390fd5b805181602001fd5b63150b7a0260e01b7bffffffffffffffffffffffffffffffffffffffffffffffffffffffff1916817bffffffffffffffffffffffffffffffffffffffffffffffffffffffff191614915050611a9c565b600190505b949350505050565b611aae8383611b22565b611abb600084848461191d565b611afa576040517f08c379a0000000000000000000000000000000000000000000000000000000008152600401611af190612f53565b60405180910390fd5b505050565b6000808273ffffffffffffffffffffffffffffffffffffffff163b119050919050565b600073ffffffffffffffffffffffffffffffffffffffff168273ffffffffffffffffffffffffffffffffffffffff1603611b91576040517f08c379a0000000000000000000000000000000000000000000000000000000008152600401611b88906130a2565b60405180910390fd5b611b9a81611889565b15611bda576040517f08c379a0000000000000000000000000000000000000000000000000000000008152600401611bd19061310e565b60405180910390fd5b611be660008383611913565b6001600360008473ffffffffffffffffffffffffffffffffffffffff1673ffffffffffffffffffffffffffffffffffffffff1681526020019081526020016000206000828254611c369190612c47565b92505081905550816002600083815260200190815260200160002060006101000a81548173ffffffffffffffffffffffffffffffffffffffff021916908373ffffffffffffffffffffffffffffffffffffffff160217905550808273ffffffffffffffffffffffffffffffffffffffff16600073ffffffffffffffffffffffffffffffffffffffff167fddf252ad1be2c89b69c2b068fc378daa952ba7f163c4a11628f55a4df523b3ef60405160405180910390a4611cf760008383611918565b5050565b6000604051905090565b600080fd5b600080fd5b60007fffffffff0000000000000000000000000000000000000000000000000000000082169050919050565b611d4481611d0f565b8114611d4f57600080fd5b50565b600081359050611d6181611d3b565b92915050565b600060208284031215611d7d57611d7c611d05565b5b6000611d8b84828501611d52565b91505092915050565b60008115159050919050565b611da981611d94565b82525050565b6000602082019050611dc46000830184611da0565b92915050565b600081519050919050565b600082825260208201905092915050565b60005b83811015611e04578082015181840152602081019050611de9565b60008484015250505050565b6000601f19601f8301169050919050565b6000611e2c82611dca565b611e368185611dd5565b9350611e46818560208601611de6565b611e4f81611e10565b840191505092915050565b60006020820190508181036000830152611e748184611e21565b905092915050565b6000819050919050565b611e8f81611e7c565b8114611e9a57600080fd5b50565b600081359050611eac81611e86565b92915050565b600060208284031215611ec857611ec7611d05565b5b6000611ed684828501611e9d565b91505092915050565b600073ffffffffffffffffffffffffffffffffffffffff82169050919050565b6000611f0a82611edf565b9050919050565b611f1a81611eff565b82525050565b6000602082019050611f356000830184611f11565b92915050565b611f4481611eff565b8114611f4f57600080fd5b50565b600081359050611f6181611f3b565b92915050565b60008060408385031215611f7e57611f7d611d05565b5b6000611f8c85828601611f52565b9250506020611f9d85828601611e9d565b9150509250929050565b6000819050919050565b6000611fcc611fc7611fc284611edf565b611fa7565b611edf565b9050919050565b6000611fde82611fb1565b9050919050565b6000611ff082611fd3565b9050919050565b61200081611fe5565b82525050565b600060208201905061201b6000830184611ff7565b92915050565b60008060006060848603121561203a57612039611d05565b5b600061204886828701611f52565b935050602061205986828701611f52565b925050604061206a86828701611e9d565b9150509250925092565b600080fd5b600080fd5b7f4e487b7100000000000000000000000000000000000000000000000000000000600052604160045260246000fd5b6120b682611e10565b810181811067ffffffffffffffff821117156120d5576120d461207e565b5b80604052505050565b60006120e8611cfb565b90506120f482826120ad565b919050565b600067ffffffffffffffff8211156121145761211361207e565b5b61211d82611e10565b9050602081019050919050565b82818337600083830152505050565b600061214c612147846120f9565b6120de565b90508281526020810184848401111561216857612167612079565b5b61217384828561212a565b509392505050565b600082601f8301126121905761218f612074565b5b81356121a0848260208601612139565b91505092915050565b6000602082840312156121bf576121be611d05565b5b600082013567ffffffffffffffff8111156121dd576121dc611d0a565b5b6121e98482850161217b565b91505092915050565b6121fb81611e7c565b82525050565b600060208201905061221660008301846121f2565b92915050565b60006020828403121561223257612231611d05565b5b600061224084828501611f52565b91505092915050565b61225281611d94565b811461225d57600080fd5b50565b60008135905061226f81612249565b92915050565b6000806040838503121561228c5761228b611d05565b5b600061229a85828601611f52565b92505060206122ab85828601612260565b9150509250929050565b600067ffffffffffffffff8211156122d0576122cf61207e565b5b6122d982611e10565b9050602081019050919050565b60006122f96122f4846122b5565b6120de565b90508281526020810184848401111561231557612314612079565b5b61232084828561212a565b509392505050565b600082601f83011261233d5761233c612074565b5b813561234d8482602086016122e6565b91505092915050565b600080600080608085870312156123705761236f611d05565b5b600061237e87828801611f52565b945050602061238f87828801611f52565b93505060406123a087828801611e9d565b925050606085013567ffffffffffffffff8111156123c1576123c0611d0a565b5b6123cd87828801612328565b91505092959194509250565b6000819050919050565b6123ec816123d9565b81146123f757600080fd5b50565b600081359050612409816123e3565b92915050565b60006020828403121561242557612424611d05565b5b6000612433848285016123fa565b91505092915050565b612445816123d9565b82525050565b6000602082019050612460600083018461243c565b92915050565b6000806040838503121561247d5761247c611d05565b5b600061248b85828601611f52565b925050602061249c85828601611f52565b9150509250929050565b600081905092915050565b7f7b226e616d65223a220000000000000000000000000000000000000000000000600082015250565b60006124e76009836124a6565b91506124f2826124b1565b600982019050919050565b600061250882611dca565b61251281856124a6565b9350612522818560208601611de6565b80840191505092915050565b7f222c202264657363697074696f6e223a2022416e204e4654207468617420636860008201527f616e676573206261736564206f6e2074686520636861696e6c696e6b2066656560208201527f64222c0000000000000000000000000000000000000000000000000000000000604082015250565b60006125b06043836124a6565b91506125bb8261252e565b604382019050919050565b7f2261747472696275746573223a205b7b2274726169745f74797065223a20226360008201527f6f6f6c6e657373222c202276616c7565223a203130307d5d2c2022696d61676560208201527f223a220000000000000000000000000000000000000000000000000000000000604082015250565b60006126486043836124a6565b9150612653826125c6565b604382019050919050565b7f4e487b7100000000000000000000000000000000000000000000000000000000600052602260045260246000fd5b600060028204905060018216806126a557607f821691505b6020821081036126b8576126b761265e565b5b50919050565b60008190508160005260206000209050919050565b600081546126e08161268d565b6126ea81866124a6565b94506001821660008114612705576001811461271a5761274d565b60ff198316865281151582028601935061274d565b612723856126be565b60005b8381101561274557815481890152600182019150602081019050612726565b838801955050505b50505092915050565b7f227d000000000000000000000000000000000000000000000000000000000000600082015250565b600061278c6002836124a6565b915061279782612756565b600282019050919050565b60006127ad826124da565b91506127b982856124fd565b91506127c4826125a3565b91506127cf8261263b565b91506127db82846126d3565b91506127e68261277f565b91508190509392505050565b60006127fe82856124fd565b915061280a82846124fd565b91508190509392505050565b7f4552433732313a20617070726f76616c20746f2063757272656e74206f776e6560008201527f7200000000000000000000000000000000000000000000000000000000000000602082015250565b6000612872602183611dd5565b915061287d82612816565b604082019050919050565b600060208201905081810360008301526128a181612865565b9050919050565b7f4552433732313a20617070726f76652063616c6c6572206973206e6f7420746f60008201527f6b656e206f776e6572206e6f7220617070726f76656420666f7220616c6c0000602082015250565b6000612904603e83611dd5565b915061290f826128a8565b604082019050919050565b60006020820190508181036000830152612933816128f7565b9050919050565b7f4552433732313a2063616c6c6572206973206e6f7420746f6b656e206f776e6560008201527f72206e6f7220617070726f766564000000000000000000000000000000000000602082015250565b6000612996602e83611dd5565b91506129a18261293a565b604082019050919050565b600060208201905081810360008301526129c581612989565b9050919050565b60006129d882846124fd565b915081905092915050565b7f4552433732313a20696e76616c696420746f6b656e2049440000000000000000600082015250565b6000612a19601883611dd5565b9150612a24826129e3565b602082019050919050565b60006020820190508181036000830152612a4881612a0c565b9050919050565b7f4552433732313a2061646472657373207a65726f206973206e6f74206120766160008201527f6c6964206f776e65720000000000000000000000000000000000000000000000602082015250565b6000612aab602983611dd5565b9150612ab682612a4f565b604082019050919050565b60006020820190508181036000830152612ada81612a9e565b9050919050565b600069ffffffffffffffffffff82169050919050565b612b0081612ae1565b8114612b0b57600080fd5b50565b600081519050612b1d81612af7565b92915050565b600081519050612b32816123e3565b92915050565b600081519050612b4781611e86565b92915050565b600080600080600060a08688031215612b6957612b68611d05565b5b6000612b7788828901612b0e565b9550506020612b8888828901612b23565b9450506040612b9988828901612b38565b9350506060612baa88828901612b38565b9250506080612bbb88828901612b0e565b9150509295509295909350565b6000612bd3826124da565b9150612bdf82856124fd565b9150612bea826125a3565b9150612bf58261263b565b9150612c0182846124fd565b9150612c0c8261277f565b91508190509392505050565b7f4e487b7100000000000000000000000000000000000000000000000000000000600052601160045260246000fd5b6000612c5282611e7c565b9150612c5d83611e7c565b9250828201905080821115612c7557612c74612c18565b5b92915050565b7f4e487b7100000000000000000000000000000000000000000000000000000000600052601260045260246000fd5b6000612cb582611e7c565b9150612cc083611e7c565b925082612cd057612ccf612c7b565b5b828204905092915050565b6000612ce682611e7c565b9150612cf183611e7c565b9250828202612cff81611e7c565b91508282048414831517612d1657612d15612c18565b5b5092915050565b7f4552433732313a207472616e736665722066726f6d20696e636f72726563742060008201527f6f776e6572000000000000000000000000000000000000000000000000000000602082015250565b6000612d79602583611dd5565b9150612d8482612d1d565b604082019050919050565b60006020820190508181036000830152612da881612d6c565b9050919050565b7f4552433732313a207472616e7366657220746f20746865207a65726f2061646460008201527f7265737300000000000000000000000000000000000000000000000000000000602082015250565b6000612e0b602483611dd5565b9150612e1682612daf565b604082019050919050565b60006020820190508181036000830152612e3a81612dfe565b9050919050565b6000612e4c82611e7c565b9150612e5783611e7c565b9250828203905081811115612e6f57612e6e612c18565b5b92915050565b7f4552433732313a20617070726f766520746f2063616c6c657200000000000000600082015250565b6000612eab601983611dd5565b9150612eb682612e75565b602082019050919050565b60006020820190508181036000830152612eda81612e9e565b9050919050565b7f4552433732313a207472616e7366657220746f206e6f6e20455243373231526560008201527f63656976657220696d706c656d656e7465720000000000000000000000000000602082015250565b6000612f3d603283611dd5565b9150612f4882612ee1565b604082019050919050565b60006020820190508181036000830152612f6c81612f30565b9050919050565b600081519050919050565b600082825260208201905092915050565b6000612f9a82612f73565b612fa48185612f7e565b9350612fb4818560208601611de6565b612fbd81611e10565b840191505092915050565b6000608082019050612fdd6000830187611f11565b612fea6020830186611f11565b612ff760408301856121f2565b81810360608301526130098184612f8f565b905095945050505050565b60008151905061302381611d3b565b92915050565b60006020828403121561303f5761303e611d05565b5b600061304d84828501613014565b91505092915050565b7f4552433732313a206d696e7420746f20746865207a65726f2061646472657373600082015250565b600061308c602083611dd5565b915061309782613056565b602082019050919050565b600060208201905081810360008301526130bb8161307f565b9050919050565b7f4552433732313a20746f6b656e20616c7265616479206d696e74656400000000600082015250565b60006130f8601c83611dd5565b9150613103826130c2565b602082019050919050565b60006020820190508181036000830152613127816130eb565b905091905056fe4142434445464748494a4b4c4d4e4f505152535455565758595a6162636465666768696a6b6c6d6e6f707172737475767778797a303132333435363738392b2fa2646970667358221220c87f676a9328ca3bebc6f163985163e3968b5778e453875c212c5f0e6bf8c38a64736f6c634300081100334142434445464748494a4b4c4d4e4f505152535455565758595a6162636465666768696a6b6c6d6e6f707172737475767778797a303132333435363738392b2f",
  "linkReferences": {},
  "deployedLinkReferences": {}
}