{
  "_format": "hh-sol-artifact-1",
  "contractName": "Raffle",
  "sourceName": "contracts/Raffle.sol",
  "abi": [
    {
      "inputs": [
        {
          "internalType": "address",
          "name": "vrfCoordinatorV2",
          "type": "address"
        },
        {
          "internalType": "uint256",
          "name": "entranceFee",
          "type": "uint256"
        },
        {
          "internalType": "bytes32",
          "name": "gasLane",
          "type": "bytes32"
        },
        {
          "internalType": "uint64",
          "name": "subscriptionId",
          "type": "uint64"
        },
        {
          "internalType": "uint32",
          "name": "callbackGasLimit",
          "type": "uint32"
        },
        {
          "internalType": "uint256",
          "name": "interval",
          "type": "uint256"
        }
      ],
      "stateMutability": "nonpayable",
      "type": "constructor"
    },
    {
      "inputs": [
        {
          "internalType": "address",
          "name": "have",
          "type": "address"
        },
        {
          "internalType": "address",
          "name": "want",
          "type": "address"
        }
      ],
      "name": "OnlyCoordinatorCanFulfill",
      "type": "error"
    },
    {
      "inputs": [],
      "name": "Raffle__NotEnoughETHEntered",
      "type": "error"
    },
    {
      "inputs": [],
      "name": "Raffle__RaffleCurrentlyClosed",
      "type": "error"
    },
    {
      "inputs": [],
      "name": "Raffle__TransferFailed",
      "type": "error"
    },
    {
      "inputs": [
        {
          "internalType": "uint256",
          "name": "currentBalance",
          "type": "uint256"
        },
        {
          "internalType": "uint256",
          "name": "numberOfPlayers",
          "type": "uint256"
        },
        {
          "internalType": "uint256",
          "name": "raffleState",
          "type": "uint256"
        }
      ],
      "name": "Raffle__UpkeepNotNeeded",
      "type": "error"
    },
    {
      "anonymous": false,
      "inputs": [
        {
          "indexed": true,
          "internalType": "address",
          "name": "player",
          "type": "address"
        }
      ],
      "name": "RaffleEnter",
      "type": "event"
    },
    {
      "anonymous": false,
      "inputs": [
        {
          "indexed": false,
          "internalType": "address",
          "name": "",
          "type": "address"
        },
        {
          "indexed": false,
          "internalType": "uint256",
          "name": "",
          "type": "uint256"
        }
      ],
      "name": "Received",
      "type": "event"
    },
    {
      "anonymous": false,
      "inputs": [
        {
          "indexed": true,
          "internalType": "uint256",
          "name": "requestId",
          "type": "uint256"
        }
      ],
      "name": "RequestedRaffleWinner",
      "type": "event"
    },
    {
      "anonymous": false,
      "inputs": [
        {
          "indexed": true,
          "internalType": "address",
          "name": "winner",
          "type": "address"
        }
      ],
      "name": "WinnerPicked",
      "type": "event"
    },
    {
      "stateMutability": "payable",
      "type": "fallback"
    },
    {
      "inputs": [
        {
          "internalType": "bytes",
          "name": "",
          "type": "bytes"
        }
      ],
      "name": "checkUpkeep",
      "outputs": [
        {
          "internalType": "bool",
          "name": "upkeepNeeded",
          "type": "bool"
        },
        {
          "internalType": "bytes",
          "name": "",
          "type": "bytes"
        }
      ],
      "stateMutability": "view",
      "type": "function"
    },
    {
      "inputs": [],
      "name": "enterRaffle",
      "outputs": [],
      "stateMutability": "payable",
      "type": "function"
    },
    {
      "inputs": [],
      "name": "getEntranceFee",
      "outputs": [
        {
          "internalType": "uint256",
          "name": "",
          "type": "uint256"
        }
      ],
      "stateMutability": "view",
      "type": "function"
    },
    {
      "inputs": [],
      "name": "getInterval",
      "outputs": [
        {
          "internalType": "uint256",
          "name": "",
          "type": "uint256"
        }
      ],
      "stateMutability": "view",
      "type": "function"
    },
    {
      "inputs": [],
      "name": "getLastTimeStamp",
      "outputs": [
        {
          "internalType": "uint256",
          "name": "",
          "type": "uint256"
        }
      ],
      "stateMutability": "view",
      "type": "function"
    },
    {
      "inputs": [],
      "name": "getNumWords",
      "outputs": [
        {
          "internalType": "uint256",
          "name": "",
          "type": "uint256"
        }
      ],
      "stateMutability": "pure",
      "type": "function"
    },
    {
      "inputs": [],
      "name": "getNumberOfPlayers",
      "outputs": [
        {
          "internalType": "uint256",
          "name": "",
          "type": "uint256"
        }
      ],
      "stateMutability": "view",
      "type": "function"
    },
    {
      "inputs": [
        {
          "internalType": "uint256",
          "name": "index",
          "type": "uint256"
        }
      ],
      "name": "getPlayers",
      "outputs": [
        {
          "internalType": "address",
          "name": "",
          "type": "address"
        }
      ],
      "stateMutability": "view",
      "type": "function"
    },
    {
      "inputs": [],
      "name": "getRaffleState",
      "outputs": [
        {
          "internalType": "enum Raffle.RaffleState",
          "name": "",
          "type": "uint8"
        }
      ],
      "stateMutability": "view",
      "type": "function"
    },
    {
      "inputs": [],
      "name": "getRecentWinner",
      "outputs": [
        {
          "internalType": "address",
          "name": "",
          "type": "address"
        }
      ],
      "stateMutability": "view",
      "type": "function"
    },
    {
      "inputs": [],
      "name": "getRequestConfirmations",
      "outputs": [
        {
          "internalType": "uint256",
          "name": "",
          "type": "uint256"
        }
      ],
      "stateMutability": "pure",
      "type": "function"
    },
    {
      "inputs": [
        {
          "internalType": "bytes",
          "name": "",
          "type": "bytes"
        }
      ],
      "name": "performUpkeep",
      "outputs": [],
      "stateMutability": "nonpayable",
      "type": "function"
    },
    {
      "inputs": [
        {
          "internalType": "uint256",
          "name": "requestId",
          "type": "uint256"
        },
        {
          "internalType": "uint256[]",
          "name": "randomWords",
          "type": "uint256[]"
        }
      ],
      "name": "rawFulfillRandomWords",
      "outputs": [],
      "stateMutability": "nonpayable",
      "type": "function"
    },
    {
      "stateMutability": "payable",
      "type": "receive"
    }
  ],
  "bytecode": "0x6101606040523480156200001257600080fd5b5060405162001a3338038062001a33833981810160405281019062000038919062000294565b858073ffffffffffffffffffffffffffffffffffffffff1660808173ffffffffffffffffffffffffffffffffffffffff1681525050508460a081815250508573ffffffffffffffffffffffffffffffffffffffff1660c08173ffffffffffffffffffffffffffffffffffffffff16815250508360e081815250508267ffffffffffffffff166101008167ffffffffffffffff16815250508163ffffffff166101208163ffffffff16815250506000600160146101000a81548160ff021916908360018111156200010d576200010c62000330565b5b0217905550426002819055508061014081815250505050505050506200035f565b600080fd5b600073ffffffffffffffffffffffffffffffffffffffff82169050919050565b6000620001608262000133565b9050919050565b620001728162000153565b81146200017e57600080fd5b50565b600081519050620001928162000167565b92915050565b6000819050919050565b620001ad8162000198565b8114620001b957600080fd5b50565b600081519050620001cd81620001a2565b92915050565b6000819050919050565b620001e881620001d3565b8114620001f457600080fd5b50565b6000815190506200020881620001dd565b92915050565b600067ffffffffffffffff82169050919050565b6200022d816200020e565b81146200023957600080fd5b50565b6000815190506200024d8162000222565b92915050565b600063ffffffff82169050919050565b6200026e8162000253565b81146200027a57600080fd5b50565b6000815190506200028e8162000263565b92915050565b60008060008060008060c08789031215620002b457620002b36200012e565b5b6000620002c489828a0162000181565b9650506020620002d789828a01620001bc565b9550506040620002ea89828a01620001f7565b9450506060620002fd89828a016200023c565b93505060806200031089828a016200027d565b92505060a06200032389828a01620001bc565b9150509295509295509295565b7f4e487b7100000000000000000000000000000000000000000000000000000000600052602160045260246000fd5b60805160a05160c05160e051610100516101205161014051611664620003cf600039600081816109a50152610a4f01526000610817015260006107f4015260006107d30152600061079701526000818161047601526105730152600081816104b3015261050701526116646000f3fe6080604052600436106100c65760003560e01c8063473f1ddc1161007f5780636e04ff0d116100595780636e04ff0d1461031a57806391ad27b414610358578063c1c244e814610383578063fd6673f5146103ae57610106565b8063473f1ddc1461029957806353a2c19a146102c45780635f1b0fd8146102ef57610106565b806309bc33a7146101aa578063115cbaf5146101d55780631fe543e3146102005780632cfcc539146102295780634585e33b14610233578063460e20491461025c57610106565b36610106577f88a5966d370b9919b20f3e2c13ff65706f196a4e32cc2c12bf57088f8852587433346040516100fc929190610de4565b60405180910390a1005b600036606082828080601f016020809104026020016040519081016040528093929190818152602001838380828437600081840152601f19601f82011690508083019250505050505050905061019f83838080601f016020809104026020016040519081016040528093929190818152602001838380828437600081840152601f19601f820116905080830192505050505050506103d9565b915050805190602001f35b3480156101b657600080fd5b506101bf610472565b6040516101cc9190610e0d565b60405180910390f35b3480156101e157600080fd5b506101ea61049a565b6040516101f79190610e9f565b60405180910390f35b34801561020c57600080fd5b5061022760048036038101906102229190611053565b6104b1565b005b610231610571565b005b34801561023f57600080fd5b5061025a6004803603810190610255919061110a565b6106e0565b005b34801561026857600080fd5b50610283600480360381019061027e9190611157565b6108d0565b6040516102909190611184565b60405180910390f35b3480156102a557600080fd5b506102ae610917565b6040516102bb9190611184565b60405180910390f35b3480156102d057600080fd5b506102d9610941565b6040516102e69190610e0d565b60405180910390f35b3480156102fb57600080fd5b50610304610950565b6040516103119190610e0d565b60405180910390f35b34801561032657600080fd5b50610341600480360381019061033c9190611254565b61095d565b60405161034f929190611337565b60405180910390f35b34801561036457600080fd5b5061036d610a4b565b60405161037a9190610e0d565b60405180910390f35b34801561038f57600080fd5b50610398610a73565b6040516103a59190610e0d565b60405180910390f35b3480156103ba57600080fd5b506103c3610a7d565b6040516103d09190610e0d565b60405180910390f35b61046f816040516024016103ed9190611367565b6040516020818303038152906040527f0be77f56000000000000000000000000000000000000000000000000000000007bffffffffffffffffffffffffffffffffffffffffffffffffffffffff19166020820180517bffffffffffffffffffffffffffffffffffffffffffffffffffffffff8381831617835250505050610a89565b50565b60007f0000000000000000000000000000000000000000000000000000000000000000905090565b6000600160149054906101000a900460ff16905090565b7f000000000000000000000000000000000000000000000000000000000000000073ffffffffffffffffffffffffffffffffffffffff163373ffffffffffffffffffffffffffffffffffffffff161461056357337f00000000000000000000000000000000000000000000000000000000000000006040517f1cf993f400000000000000000000000000000000000000000000000000000000815260040161055a929190611389565b60405180910390fd5b61056d8282610ab2565b5050565b7f00000000000000000000000000000000000000000000000000000000000000003410156105cb576040517fbd4e069500000000000000000000000000000000000000000000000000000000815260040160405180910390fd5b600060018111156105df576105de610e28565b5b600160149054906101000a900460ff16600181111561060157610600610e28565b5b14610638576040517f9d4931a200000000000000000000000000000000000000000000000000000000815260040160405180910390fd5b6000339080600181540180825580915050600190039060005260206000200160009091909190916101000a81548173ffffffffffffffffffffffffffffffffffffffff021916908373ffffffffffffffffffffffffffffffffffffffff1602179055503373ffffffffffffffffffffffffffffffffffffffff167f0805e1d667bddb8a95f0f09880cf94f403fb596ce79928d9f29b74203ba284d460405160405180910390a2565b60006106fa6040518060200160405280600081525061095d565b509050806107695747600080549050600160149054906101000a900460ff16600181111561072b5761072a610e28565b5b6040517f584327aa000000000000000000000000000000000000000000000000000000008152600401610760939291906113b2565b60405180910390fd5b60018060146101000a81548160ff0219169083600181111561078e5761078d610e28565b5b021790555060007f000000000000000000000000000000000000000000000000000000000000000073ffffffffffffffffffffffffffffffffffffffff16635d3b1d307f00000000000000000000000000000000000000000000000000000000000000007f000000000000000000000000000000000000000000000000000000000000000060037f000000000000000000000000000000000000000000000000000000000000000060016040518663ffffffff1660e01b8152600401610858959493929190611461565b6020604051808303816000875af1158015610877573d6000803e3d6000fd5b505050506040513d601f19601f8201168201806040525081019061089b91906114c9565b9050807fcd6e45c8998311cab7e9d4385596cac867e20a0587194b954fa3a731c93ce78b60405160405180910390a250505050565b60008082815481106108e5576108e46114f6565b5b9060005260206000200160009054906101000a900473ffffffffffffffffffffffffffffffffffffffff169050919050565b6000600160009054906101000a900473ffffffffffffffffffffffffffffffffffffffff16905090565b6000600163ffffffff16905090565b6000600361ffff16905090565b600060606000600160149054906101000a900460ff16600181111561098557610984610e28565b5b6000600181111561099957610998610e28565b5b149050600042905060007f0000000000000000000000000000000000000000000000000000000000000000600254836109d29190611554565b119050600080600080549050119050600080471190508480156109f25750825b80156109fb5750815b8015610a045750805b9650866040518060400160405280600381526020017f3078300000000000000000000000000000000000000000000000000000000000815250965096505050505050915091565b60007f0000000000000000000000000000000000000000000000000000000000000000905090565b6000600254905090565b60008080549050905090565b60008151905060006a636f6e736f6c652e6c6f679050602083016000808483855afa5050505050565b6000808054905082600081518110610acd57610acc6114f6565b5b6020026020010151610adf91906115b7565b90506000808281548110610af657610af56114f6565b5b9060005260206000200160009054906101000a900473ffffffffffffffffffffffffffffffffffffffff16905080600160006101000a81548173ffffffffffffffffffffffffffffffffffffffff021916908373ffffffffffffffffffffffffffffffffffffffff160217905550600067ffffffffffffffff811115610b7f57610b7e610f10565b5b604051908082528060200260200182016040528015610bad5781602001602082028036833780820191505090505b5060009080519060200190610bc3929190610ce3565b50426002819055506000600160146101000a81548160ff02191690836001811115610bf157610bf0610e28565b5b021790555060008173ffffffffffffffffffffffffffffffffffffffff1647604051610c1c90611619565b60006040518083038185875af1925050503d8060008114610c59576040519150601f19603f3d011682016040523d82523d6000602084013e610c5e565b606091505b5050905080610c99576040517fa1d04b3900000000000000000000000000000000000000000000000000000000815260040160405180910390fd5b8173ffffffffffffffffffffffffffffffffffffffff167f5b690ec4a06fe979403046eaeea5b3ce38524683c3001f662c8b5a829632f7df60405160405180910390a25050505050565b828054828255906000526020600020908101928215610d5c579160200282015b82811115610d5b5782518260006101000a81548173ffffffffffffffffffffffffffffffffffffffff021916908373ffffffffffffffffffffffffffffffffffffffff16021790555091602001919060010190610d03565b5b509050610d699190610d6d565b5090565b5b80821115610d86576000816000905550600101610d6e565b5090565b600073ffffffffffffffffffffffffffffffffffffffff82169050919050565b6000610db582610d8a565b9050919050565b610dc581610daa565b82525050565b6000819050919050565b610dde81610dcb565b82525050565b6000604082019050610df96000830185610dbc565b610e066020830184610dd5565b9392505050565b6000602082019050610e226000830184610dd5565b92915050565b7f4e487b7100000000000000000000000000000000000000000000000000000000600052602160045260246000fd5b60028110610e6857610e67610e28565b5b50565b6000819050610e7982610e57565b919050565b6000610e8982610e6b565b9050919050565b610e9981610e7e565b82525050565b6000602082019050610eb46000830184610e90565b92915050565b6000604051905090565b600080fd5b600080fd5b610ed781610dcb565b8114610ee257600080fd5b50565b600081359050610ef481610ece565b92915050565b600080fd5b6000601f19601f8301169050919050565b7f4e487b7100000000000000000000000000000000000000000000000000000000600052604160045260246000fd5b610f4882610eff565b810181811067ffffffffffffffff82111715610f6757610f66610f10565b5b80604052505050565b6000610f7a610eba565b9050610f868282610f3f565b919050565b600067ffffffffffffffff821115610fa657610fa5610f10565b5b602082029050602081019050919050565b600080fd5b6000610fcf610fca84610f8b565b610f70565b90508083825260208201905060208402830185811115610ff257610ff1610fb7565b5b835b8181101561101b57806110078882610ee5565b845260208401935050602081019050610ff4565b5050509392505050565b600082601f83011261103a57611039610efa565b5b813561104a848260208601610fbc565b91505092915050565b6000806040838503121561106a57611069610ec4565b5b600061107885828601610ee5565b925050602083013567ffffffffffffffff81111561109957611098610ec9565b5b6110a585828601611025565b9150509250929050565b600080fd5b60008083601f8401126110ca576110c9610efa565b5b8235905067ffffffffffffffff8111156110e7576110e66110af565b5b60208301915083600182028301111561110357611102610fb7565b5b9250929050565b6000806020838503121561112157611120610ec4565b5b600083013567ffffffffffffffff81111561113f5761113e610ec9565b5b61114b858286016110b4565b92509250509250929050565b60006020828403121561116d5761116c610ec4565b5b600061117b84828501610ee5565b91505092915050565b60006020820190506111996000830184610dbc565b92915050565b600080fd5b600067ffffffffffffffff8211156111bf576111be610f10565b5b6111c882610eff565b9050602081019050919050565b82818337600083830152505050565b60006111f76111f2846111a4565b610f70565b9050828152602081018484840111156112135761121261119f565b5b61121e8482856111d5565b509392505050565b600082601f83011261123b5761123a610efa565b5b813561124b8482602086016111e4565b91505092915050565b60006020828403121561126a57611269610ec4565b5b600082013567ffffffffffffffff81111561128857611287610ec9565b5b61129484828501611226565b91505092915050565b60008115159050919050565b6112b28161129d565b82525050565b600081519050919050565b600082825260208201905092915050565b60005b838110156112f25780820151818401526020810190506112d7565b60008484015250505050565b6000611309826112b8565b61131381856112c3565b93506113238185602086016112d4565b61132c81610eff565b840191505092915050565b600060408201905061134c60008301856112a9565b818103602083015261135e81846112fe565b90509392505050565b6000602082019050818103600083015261138181846112fe565b905092915050565b600060408201905061139e6000830185610dbc565b6113ab6020830184610dbc565b9392505050565b60006060820190506113c76000830186610dd5565b6113d46020830185610dd5565b6113e16040830184610dd5565b949350505050565b6000819050919050565b6113fc816113e9565b82525050565b600067ffffffffffffffff82169050919050565b61141f81611402565b82525050565b600061ffff82169050919050565b61143c81611425565b82525050565b600063ffffffff82169050919050565b61145b81611442565b82525050565b600060a08201905061147660008301886113f3565b6114836020830187611416565b6114906040830186611433565b61149d6060830185611452565b6114aa6080830184611452565b9695505050505050565b6000815190506114c381610ece565b92915050565b6000602082840312156114df576114de610ec4565b5b60006114ed848285016114b4565b91505092915050565b7f4e487b7100000000000000000000000000000000000000000000000000000000600052603260045260246000fd5b7f4e487b7100000000000000000000000000000000000000000000000000000000600052601160045260246000fd5b600061155f82610dcb565b915061156a83610dcb565b925082820390508181111561158257611581611525565b5b92915050565b7f4e487b7100000000000000000000000000000000000000000000000000000000600052601260045260246000fd5b60006115c282610dcb565b91506115cd83610dcb565b9250826115dd576115dc611588565b5b828206905092915050565b600081905092915050565b50565b60006116036000836115e8565b915061160e826115f3565b600082019050919050565b6000611624826115f6565b915081905091905056fea26469706673582212201817b4f59ad9f8fb958faa83aab81d7a85d1a98c51da32bf0c94bd6fa5e8fd3864736f6c63430008110033",
  "linkReferences": {},
  "deployedLinkReferences": {}
}